:100000000C94CF030C94F7030C94F7030C94F703B0
:100010000C94F7030C94F7030C94F7030C94F70378
:100020000C94F7030C94F7030C94F7030C94F70368
:100030000C94F7030C94F7030C94F7030C94F70358
:100040000C9402170C94F7030C9472170C944C1731
:100050000C94F7030C94F7030C94F7030C94F70338
:100060000C94A4170C94F70300000000003E5B4FB3
:100070005B3E3E6B4F6B3E1C3E7C3E1C183C7E3C08
:10008000181C577D571C1C5E7F5E1C00183C180016
:10009000FFE7C3E7FF0018241800FFE7DBE7FF30A6
:1000A000483A060E2629792926407F050507407F14
:1000B00005253F5A3CE73C5A7F3E1C1C08081C1C87
:1000C0003E7F14227F22145F5F005F5F06097F017D
:1000D0007F006689956A606060606094A2FFA29468
:1000E00008047E040810207E201008082A1C080836
:1000F0001C2A08081E101010100C1E0C1E0C303884
:100100003E3830060E3E0E06000000000000005F84
:1001100000000007000700147F147F14242A7F2AA0
:100120001223130864623649562050000807030062
:10013000001C2241000041221C002A1C7F1C2A08AE
:10014000083E080800807030000808080808000011
:1001500060600020100804023E5149453E00427F85
:10016000400072494949462141494D331814127FD4
:100170001027454545393C4A494931412111090774
:100180003649494936464949291E000014000000F5
:1001900040340000000814224114141414140041C7
:1001A00022140802015909063E415D594E7C121184
:1001B000127C7F494949363E414141227F414141BC
:1001C0003E7F494949417F090909013E4141517337
:1001D0007F0808087F00417F41002040413F017FA8
:1001E000081422417F404040407F021C027F7F0470
:1001F00008107F3E4141413E7F090909063E4151B9
:10020000215E7F09192946264949493203017F01A8
:10021000033F4040403F1F2040201F3F4038403FA9
:10022000631408146303047804036159494D4300BF
:100230007F4141410204081020004141417F0402F6
:10024000010204404040404000030708002054548D
:1002500078407F284444383844444428384444286B
:100260007F385454541800087E090218A4A49C78BE
:100270007F0804047800447D40002040403D007F1A
:100280001028440000417F40007C047804787C08FA
:100290000404783844444438FC18242418182424CE
:1002A00018FC7C08040408485454542404043F44B3
:1002B000243C4040207C1C2040201C3C4030403CE2
:1002C00044281028444C9090907C4464544C440042
:1002D00008364100000077000000413608000201A6
:1002E0000204023C2623263C1EA1A161123A404092
:1002F000207A38545455592155557941225454780F
:1003000042215554784020545579400C1E527212A7
:100310003955555559395454545939555454580030
:1003200000457C410002457D420001457C407D1234
:1003300011127DF0282528F07C5455450020545496
:100340007C547C0A097F4932494949323A44444441
:100350003A324A4848303A4141217A3A424020787C
:10036000009DA0A07D3D4242423D3D4040403D3C7D
:1003700024FF2424487E4943662B2FFC2F2BFF09A2
:1003800029F620C0887E0903205454794100004496
:100390007D413048484A32384040227A007A0A0A81
:1003A000727D0D19317D2629292F282629292926F4
:1003B00030484D4020380808080808080808382F39
:1003C00010C8ACBA2F102834FA00007B00000814C3
:1003D0002A142222142A14085500550055AA55AA99
:1003E00055AAFF55FF55FF000000FF00101010FF39
:1003F00000141414FF001010FF00FF1010F010F094
:10040000141414FC001414F700FF0000FF00FF1484
:1004100014F404FC141417101F10101F101F1414D0
:10042000141F00101010F0000000001F101010101A
:100430001F10101010F010000000FF10101010100E
:1004400010101010FF10000000FF140000FF00FF4C
:1004500000001F10170000FC04F4141417101714E8
:1004600014F404F40000FF00F7141414141414140A
:10047000F700F7141414171410101F101F1414147D
:10048000F4141010F010F000001F101F0000001FE7
:1004900014000000FC140000F010F01010FF10FF1A
:1004A000141414FF141010101F00000000F010FFAF
:1004B000FFFFFFFFF0F0F0F0F0FFFFFF0000000093
:1004C00000FFFF0F0F0F0F0F3844443844FC4A4A17
:1004D0004A347E02020606027E027E0263554941CC
:1004E000633844443C04407E201E2006027E020203
:1004F00099A5E7A5991C2A492A1C4C7201724C3017
:100500004A4D4D303048784830BC625A463D3E49ED
:100510004949007E0101017E2A2A2A2A2A44445F91
:10052000444440514A444040444A51400000FF0185
:1005300003E080FF000008086B6B08361236243693
:10054000060F090F060000181800000010100030F8
:1005500040FF0101001F01011E00191D1712003C80
:100560003C3C3C0000000000EF03038002CF03008E
:10057000C130ED0464031281E803850078CB0539AE
:100580002C003402F70120EA020000C00123C1015F
:1005900010C5023E28C701863601483701003A01DE
:1005A00055B1020018B603088227F20100260101A6
:1005B000E00F0F312B0C0E084EF1370710030E0918
:1005C00000E10F000E1403110731C148080F0C3170
:1005D000360F1180298000446F6E652100526F75BF
:1005E0006E646564207265637473202866696C6C40
:1005F00065642920202000526F756E646564207246
:100600006563747320286F75746C696E652920208A
:1006100000547269616E676C6573202866696C6C42
:100620006564292020202020202000547269616EFA
:10063000676C657320286F75746C696E652920205E
:100640002020202000436972636C657320286F7539
:10065000746C696E65292020202020202020004312
:100660006972636C6573202866696C6C6564292007
:1006700020202020202020200052656374616E67B6
:100680006C6573202866696C6C65642920202020C5
:1006900020200052656374616E676C657320286F5B
:1006A00075746C696E6529202020202000486F72C7
:1006B000697A2F56657274204C696E65732020200C
:1006C000202020202020004C696E657320202020EF
:1006D000202020202020202020202020202020201A
:1006E0000054657874202020202020202020202005
:1006F00020202020202020202020005363726565C8
:100700006E2066696C6C2020202020202020202074
:10071000202020200042656E63686D61726B20208E
:10072000202020202020202020202020202054694C
:100730006D6520286D6963726F7365636F6E647396
:10074000290000000000240027002A000000000803
:100750000002010000030407000000000000000088
:1007600000000000230026002900010204081020D8
:10077000408001020408102001020408102000003B
:100780000000250028002B000404040404040404D1
:10079000020202020202030303030303BF1811242F
:1007A0001FBECFEFD8E0DEBFCDBF12E0A0E0B1E0CA
:1007B000E4E4F8E402C005900D92AE37B107D9F732
:1007C00023E0AEE7B2E001C01D92A93DB207E1F718
:1007D00013E0CFECD3E004C02197FE010E94152462
:1007E000CE3CD107C9F70E94D6190C9420240C9452
:1007F000000090E0FC01E45BF84F2491FC01E65915
:10080000F84F3491FC01E857F84FE491EE23C9F01A
:10081000222339F0233001F1A8F4213019F12230DC
:1008200029F1F0E0EE0FFF1FE258F84FA591B491C7
:100830008FB7F894EC91611126C030953E233C931C
:100840008FBF08952730A9F02830C9F0243049F728
:10085000809180008F7D03C0809180008F7780938E
:100860008000DFCF84B58F7784BDDBCF84B58F7DEB
:10087000FBCF8091B0008F778093B000D2CF809172
:10088000B0008F7DF9CF3E2BDACFCF93DF9390E08E
:10089000FC01E659F84F24918857984FFC01849148
:1008A0008823D1F090E0880F991FFC01EE5BF84F90
:1008B000A591B491FC01E258F84FC591D491611112
:1008C0000EC09FB7F8948C91E22FE0958E238C9305
:1008D0002881E223E8839FBFDF91CF9108958FB7EE
:1008E000F894EC91E22BEC938FBFF6CF3FB7F894DE
:1008F0008091F5029091F602A091F702B091F80272
:1009000026B5A89B05C02F3F19F00196A11DB11D6A
:100910003FBFBA2FA92F982F8827BC01CD01620FA6
:10092000711D811D911D42E0660F771F881F991F61
:100930004A95D1F708958F929F92AF92BF92CF922E
:10094000DF92EF92FF924B015C010E9476046B01F3
:100950007C010E9476046C197D098E099F09683E0E
:10096000734081059105A8F321E0821A9108A1083E
:10097000B10888EEC80E83E0D81EE11CF11C81147A
:100980009104A104B10429F7FF90EF90DF90CF907C
:10099000BF90AF909F908F900895AF92BF92CF92EB
:1009A000DF92EF92FF920F931F93CF93DF936C012F
:1009B0007B018B01040F151FEB015E01AE18BF0810
:1009C000C017D10759F06991D601ED91FC910190C2
:1009D000F081E02DC6010995892B79F7C501DF91DA
:1009E000CF911F910F91FF90EF90DF90CF90BF902C
:1009F000AF900895FC01538D448D252F30E0842F56
:100A000090E0821B930B541710F0CF960895019736
:100A10000895FC01918D828D981761F0A28DAE0F23
:100A2000BF2FB11D5D968C91928D9F5F9F73928FAA
:100A300090E008958FEF9FEF0895FC01918D828DD6
:100A4000981731F0828DE80FF11D858D90E00895A3
:100A50008FEF9FEF0895FC01918D228D892F90E0FB
:100A6000805C9F4F821B91098F739927089589EFAE
:100A700092E00E942B0521E0892B09F420E0822FCF
:100A8000089580E090E0892B29F00E9437058111BC
:100A90000C9400000895FC01A48DA80FB92FB11D7E
:100AA000A35ABF4F2C91848D90E001968F739927A4
:100AB000848FA689B7892C93A089B1898C91837082
:100AC00080648C93938D848D981306C00288F3897B
:100AD000E02D80818F7D80830895EF92FF920F93A8
:100AE0001F93CF93DF93EC0181E0888F9B8D8C8DDA
:100AF00098131AC0E889F989808185FF15C09FB7CE
:100B0000F894EE89FF896083E889F9898081837090
:100B1000806480839FBF81E090E0DF91CF911F913F
:100B20000F91FF90EF900895F62E0B8D10E00F5F60
:100B30001F4F0F731127E02E8C8D8E110CC00FB636
:100B400007FCFACFE889F989808185FFF5CFCE01CE
:100B50000E944B05F1CFEB8DEC0FFD2FF11DE35AF9
:100B6000FF4FF0829FB7F8940B8FEA89FB89808151
:100B70008062CFCF0F931F93CF93DF938C01D0E090
:100B8000C0E0F801EC0FFD1F6491662341F089EF8E
:100B900092E00E946D05892B11F02196F2CFCE01D3
:100BA000DF91CF911F910F910895CF93DF93EC01C7
:100BB000888D8823B9F0AA89BB89E889F9898C9145
:100BC00085FD03C0808186FD0DC00FB607FCF7CF01
:100BD0008C9185FFF2CF808185FFEDCFCE010E9401
:100BE0004B05E9CFDF91CF9108952091A502260F03
:100BF0003327331F21323105ECF42091C902FC0167
:100C000090E080E0243069F082E00895A091A50290
:100C10002191AC014B575D4FA40FB52FB11D2C9303
:100C20000196861798F38091A502680F6093A5023C
:100C300080E0089581E0089508958FEF9FEF089573
:100C40008FEF9FEF089580917E0290E091958195BE
:100C500091090895CF93DF93CB01EA01642F0E949D
:100C6000F505CE01DF91CF910895CF93DF931F92C9
:100C7000CDB7DEB7698361E0CE0101960E94F5052C
:100C800081E090E00F90DF91CF910895FC01A5A144
:100C9000B6A18C9192A589238C93A5A1B6A18C9124
:100CA00091A5892B8C930895DC019396ED91FC918D
:100CB0009497908198968C91892380830895DC0184
:100CC0009396ED91FC919497908197968C91892BB6
:100CD00080830895FF920F931F93CF93DF93EC01CE
:100CE0008B018DA981110EC01EBD0DB407FEFDCF75
:100CF0000EBD0DB407FEFDCFDF91CF911F910F9177
:100D0000FF9008958130C9F490E1F92EE9A1FAA18C
:100D1000808117FF0FC09DA1892B8083CE010E9487
:100D20005F06CE010E945406000F111FFA94F110C5
:100D3000EDCFE2CF9EA18923F0CFEF8DF8A11083F4
:100D4000CE010E944606EF8DF8A10083CE01DF910F
:100D5000CF911F910F91FF900C9446060F931F9314
:100D6000CF93DF93EC01162F8DA9811109C06EBDC1
:100D70000DB407FEFDCFDF91CF911F910F91089524
:100D80008130B1F408E0E9A1FAA1808117FF0DC01C
:100D90009DA1892B8083CE010E945F06110FCE0199
:100DA0000E945406015079F7E6CF9EA18923F2CF25
:100DB000EF8DF8A16083CE01DF91CF911F910F914C
:100DC0000C944606CF93DF93EC01ED8DFE8D808170
:100DD0009CA989238083CE010E94AE06ED8DFE8DF5
:100DE00080819BA9892B8083DF91CF910895AF9259
:100DF000BF92CF92DF92EF92FF920F931F93CF9308
:100E0000DF93EC015B016A01215031097901E60EA3
:100E1000F71E01501109040F151F809106019091D2
:100E200007018617970739F4809104019091050115
:100E30008E159F05A1F06AE2CE010E94E206B5017F
:100E4000CE010E946A06B701CE010E946A06B092E6
:100E50000701A0920601F0920501E0920401809141
:100E60000201909103018C159D0539F480910001D8
:100E70009091010180179107A1F06BE2CE010E94D1
:100E8000E206B601CE010E946A06B801CE010E94B8
:100E90006A06D0920301C0920201109301010093EF
:100EA00000016CE2CE01DF91CF911F910F91FF9075
:100EB000EF90DF90CF90BF90AF900C94E206FC01D2
:100EC00085A9811104C091A182A19CBD8DBD089509
:100ED0001F93CF93DF93EC01162FE881F9810284F1
:100EE000F385E02D0995112371F06DADCE010E94BF
:100EF000E206E881F9810688F789E02DCE01DF91CD
:100F0000CF911F9109946EADF1CFAF92BF92CF9266
:100F1000DF92EF92FF920F931F93CF93DF93EC0139
:100F200077FD38C088859985681779079CF557FD46
:100F300031C08A859B854817590764F569017A0194
:100F40005B01E881F9810284F385E02DCE010995EA
:100F5000E881F98102A4F3A5E02D01E010E021E091
:100F600030E0A701B501CE010995B601CE010E947E
:100F70006A06E881F9810688F789E02DCE01DF91C4
:100F8000CF911F910F91FF90EF90DF90CF90BF9086
:100F9000AF900994DF91CF911F910F91FF90EF9047
:100FA000DF90CF90BF90AF9008958F929F92AF92B5
:100FB000BF92CF92DF92EF92FF920F931F93CF9346
:100FC000DF93EC0149015701E881F98102A4F3A5FF
:100FD000E02D09959401D8010E94F7236B017C0153
:100FE000C114D104E104F10409F483C08DA9811175
:100FF00015C081E0C81AD108E108F1088FEFC816C2
:10100000D806E806F80609F474C0BEBC0DB407FEA5
:10101000FDCFAEBC0DB407FEFDCFEBCF8130C9F5DF
:1010200081E0C81AD108E108F1088FEFC816D80688
:10103000E806F80609F45DC00B2D18E0E9A1FAA155
:10104000808107FF20C09DA1892B8083CE010E9453
:101050005F06CE010E945406000F115079F70A2D49
:1010600018E0E9A1FAA1808107FF10C09DA1892B9A
:101070008083CE010E945F06CE010E945406000FBD
:10108000115079F7CDCF9EA18923DFCF9EA189236F
:10109000EFCFBA1016C0CC0CDD1CEE1CFF1CEF8D80
:1010A000F8A1B08281E0C81AD108E108F1088FEFF9
:1010B000C816D806E806F806E1F0CE010E944606FA
:1010C000F1CF81E0C81AD108E108F1088FEFC81606
:1010D000D806E806F80669F0EF8DF8A1B082CE01D7
:1010E0000E944606EF8DF8A1A082CE010E9446061E
:1010F000E8CFDF91CF911F910F91FF90EF90DF909C
:10110000CF90BF90AF909F908F9008958F929F92B5
:10111000AF92BF92CF92DF92EF92FF920F931F9305
:10112000CF93DF935C014B016A01E90177FD52C067
:10113000DC0118968D919C91681779070CF04AC0D4
:10114000209709F447C037FF07C0C9010196C80EB0
:10115000D91ED195C195D109F50182859385C8160F
:10116000D906C4F5A6014C0F5D1F9A012150310923
:1011700037FD30C0D7FE03C0EA01D12CC12C28179F
:1011800039071CF0EC01CC19DD09D501ED91FC917A
:101190000284F385E02DC501099578018E0121E0D7
:1011A00030E0A601B401C5010E94D507D501ED913B
:1011B000FC910688F789E02DC501DF91CF911F9141
:1011C0000F91FF90EF90DF90CF90BF90AF909F90E6
:1011D0008F900994DF91CF911F910F91FF90EF9025
:1011E000DF90CF90BF90AF909F908F9008958F9297
:1011F0009F92AF92BF92CF92DF92EF92FF920F93A6
:101200001F93CF93DF935C016B014A01E90157FD06
:1012100052C0DC011A968D919C91481759070CF029
:101220004AC0209709F447C037FF07C0C90101969B
:10123000C80ED91ED195C195D109F501808591853A
:10124000C816D906C4F5A6014C0F5D1F9A0121509E
:10125000310937FD30C0D7FE03C0EA01D12CC12CC3
:10126000281739071CF0EC01CC19DD09D501ED91E7
:10127000FC910284F385E02DC5010995780101E018
:1012800010E09E01A401B601C5010E94D507D50159
:10129000ED91FC910688F789E02DC501DF91CF9192
:1012A0001F910F91FF90EF90DF90CF90BF90AF9084
:1012B0009F908F900994DF91CF911F910F91FF9094
:1012C000EF90DF90CF90BF90AF909F908F90089558
:1012D0008F929F92AF92BF92CF92DF92EF92FF9246
:1012E0000F931F93CF93DF934C016B015A01E901D8
:1012F000209709F46CC00115110509F468C037FF87
:1013000007C0C9010196C80ED91ED195C195D10952
:10131000F401A085B185CA16DB060CF058C017FF92
:1013200007C0C8010196A80EB91E119501951109B3
:10133000F40182859385A816B9060CF048C0F60121
:10134000EC0FFD1FAF014150510957FD40C0B501E1
:10135000600F711F9B012150310937FD38C0D7FE46
:1013600003C0EF01D12CC12CB7FE03C08B01B12CFF
:10137000A12C4A175B071CF0ED01CC19DD092817D9
:1013800039071CF08C010A191B09D401ED91FC915D
:101390000284F385E02DC40109959E01A501B601E3
:1013A000C4010E94D507D401ED91FC910688F7890C
:1013B000E02DC401DF91CF911F910F91FF90EF902D
:1013C000DF90CF90BF90AF909F908F900994DF9166
:1013D000CF911F910F91FF90EF90DF90CF90BF9032
:1013E000AF909F908F900895EF92FF920F931F936D
:1013F000CF93DF9377FD32C0DC011896ED91FC911D
:101400006E177F075CF52115310541F137FF07C0E5
:10141000F90131964E0F5F1F319521953109DC019D
:101420001A96ED91FC914E175F07C4F4EA01C20FC2
:10143000D31FDE011197B7FD11C057FF03C09E01F6
:1014400050E040E0AE17BF071CF09F01241B350B96
:101450007801890121E030E00E94D507DF91CF912A
:101460001F910F91FF90EF9008952F923F924F920E
:101470005F926F927F928F929F92AF92BF92CF9224
:10148000DF92EF92FF920F931F93CF93DF93CDB72D
:10149000DEB72C970FB6F894DEBF0FBECDBF3C0170
:1014A0007C836B835C874B871801270181E090E088
:1014B0005C01A41AB50ACA01919581959109AC0104
:1014C000440F551F5A834983C80101969E838D831B
:1014D000F12CE12C88248394912C922F91709F837E
:1014E00022702887AB014F5F5F4F5A8749878B85F2
:1014F0009C85E816F9060CF07AC0CB84DC84B7FC36
:101500000CC06C0191E0C91AD10849815A814E5F23
:101510005F4F5A834983A40EB51E5FEFE51AF50AA3
:1015200082E0880E911CA80CB91CCE14DF0464F173
:101530009F81992399F09601220F331F4D815E817F
:10154000240F351F82014B815C814C195D09B70165
:10155000660D771D86E993E00E94F40958855523AE
:1015600099F09601220F331F8D819E81280F391F1C
:1015700082014B815C814C195D09B3016E197F09B1
:1015800086E993E00E94F4094B855C854C155D0566
:1015900059F15F81552391F0940122503109220DB8
:1015A000331D820149855A854E195F096B857C85FB
:1015B000660D771D86E993E00E94F40988858823EB
:1015C00099F0940122503109220D331DB3014B854E
:1015D0005C85641B750B820149855A854E195F092C
:1015E00086E993E00E94F409DC86CB8680CF2C96B6
:1015F0000FB6F894DEBF0FBECDBFDF91CF911F9124
:101600000F91FF90EF90DF90CF90BF90AF909F90A1
:101610008F907F906F905F904F903F902F900895A4
:10162000EF92FF920F931F93CF93DF9357FD31C03B
:10163000DC011A96ED91FC914E175F0754F52115C8
:10164000310539F137FF07C0F90131966E0F7F1F61
:10165000319521953109DC011896ED91FC916E17B9
:101660007F07BCF4EB01C20FD31FDE011197B7FD5A
:1016700010C077FF03C09E0170E060E0AE17BF07A7
:101680001CF09F01261B370B780101E010E00E943F
:10169000D507DF91CF911F910F91FF90EF900895A3
:1016A0008F929F92AF92BF92CF92DF92EF92FF9272
:1016B0000F931F93CF93DF9347012115310509F451
:1016C0004BC00115110509F447C037FF07C0F901E8
:1016D00031966E0F7F1F319521953109DC011896E7
:1016E000AD90BC906A157B05BCF517FF07C0F801EB
:1016F00031964E0F5F1F119501951109DC011A9665
:10170000ED91FC914E175F073CF56B01C20ED31EA5
:10171000E6012197D7FD20C07A01E00EF11ED70126
:101720001197B7FD19C077FF03C0960170E060E024
:1017300057FF03C0870150E040E0CA15DB051CF0ED
:101740009501261B370BAE17BF071CF08F01041B3A
:10175000150B74010E94D507DF91CF911F910F9156
:10176000FF90EF90DF90CF90BF90AF909F908F90C1
:101770000895EF92FF920F931F93CF93DF93EC01A5
:1017800077FD22C08885998568177907ECF457FDA5
:101790001BC08A859B8548175907B4F47901E881F5
:1017A000F98102A4F3A5E02D01E010E021E030E092
:1017B000CE010995B701CE01DF91CF911F910F9115
:1017C000FF90EF900C946A06DF91CF911F910F91DB
:1017D000FF90EF9008952F923F924F925F926F92F9
:1017E0007F928F929F92AF92BF92CF92DF92EF92B1
:1017F000FF920F931F93CF93DF9300D000D0CDB70C
:10180000DEB76C015B015C834B8381E090E04C01AF
:10181000841A950A2A01519441945108440C551C8C
:10182000F12CE12C66246394712C422F447049837F
:10183000522F52705A83822F8870282E2170322E98
:101840004B815C81E416F5060CF083C097FC09C05F
:10185000415051095C834B8352E0450E511C840C6E
:10186000951C8FEFE81AF80A92E0690E711C860C3D
:10187000971C49814423C1F098014B815C814A0D3A
:101880005B1DB6016E0D7F1D86E993E00E94B90BCA
:101890009801A5014E0D5F1D6B817C816C0D7D1D36
:1018A00086E993E00E94B90B5A815523C9F098014B
:1018B000A5018B819C81481B590BB6016E0D7F1DC4
:1018C00086E993E00E94B90B9801A5014E195F09C2
:1018D0006B817C816C0D7D1D86E993E00E94B90BC4
:1018E0002220C9F09801A5014E0D5F1DB6018B8124
:1018F0009C81681B790B86E993E00E94B90B9801E3
:101900004B815C814A0D5B1DB6016E197F0986E92A
:1019100093E00E94B90B332009F492CF9801A501FE
:101920004E195F09B6018B819C81681B790B86E992
:1019300093E00E94B90B9801A5018B819C81481B03
:10194000590BB6016E197F0986E993E00E94B90B25
:1019500077CF0F900F900F900F90DF91CF911F9145
:101960000F91FF90EF90DF90CF90BF90AF909F903E
:101970008F907F906F905F904F903F902F90089541
:10198000CF93DF93EC010E945F078FA987FD06C00C
:10199000EB8DFC8D80819AA989238083DF91CF9183
:1019A00008950895AF92BF92CF92DF92EF92FF9287
:1019B0000F931F93CF93DF93EC01E62E8A01A22EA3
:1019C0000E945F078FA987FD06C0EB8DFC8D80818B
:1019D0009AA989238083ED8DFE8D80819CA989231E
:1019E00080836E2DCE010E94AE06ED8DFE8D80812E
:1019F0009BA9892B8083D12CC12CB12CCA14DB0468
:101A0000E4F48DA97801823079F488A9882361F003
:101A1000F801619171917F01CE010E946A06FFEF8A
:101A2000CF1ADF0A8701EACFFFEFEF1AFF0AF801AA
:101A30006491CE010E94AE06F2CF8FA987FD06C049
:101A4000EB8DFC8D808199A9892B8083DF91CF91CB
:101A50001F910F91FF90EF90DF90CF90BF90AF90CC
:101A60000895611106C060E220E050E040E00C946F
:101A7000D20C61E2F9CFFF920F931F93CF93DF93C4
:101A8000EC01F62E8A010E945F078FA987FD06C030
:101A9000EB8DFC8D80819AA989238083ED8DFE8D4D
:101AA00080819CA9892380836F2DCE010E94AE0680
:101AB000ED8DFE8D80819BA9892B80838DA9F801F6
:101AC000823099F06081CE010E94AE068FA987FD19
:101AD00006C0EB8DFC8D808199A9892B8083DF91D5
:101AE000CF911F910F91FF90089588A9882351F3FA
:101AF00060817181CE010E946A06E8CFCF93DF93A7
:101B00001F92CDB7DEB7FC016370668B623071F057
:101B1000633009F188E4613051F488E2898380E41C
:101B200091E09187808780EF90E008C088E8898302
:101B300080EF90E09187808780E491E093878287AF
:101B4000AE014F5F5F4F66E3CF010E943B0D0F90E8
:101B5000DF91CF91089588EEE1CFFC0187A987FD41
:101B600006C0A38DB48D9C9181A9892B8C93089577
:101B70000F931F93CF93DF931F92CDB7DEB7182F2C
:101B800080E18983AE014F5F5F4F69ED86E993E0A5
:101B90000E943B0D86E993E00E94C00CE091B303E4
:101BA000F091B40380819091CA0389238083612FCF
:101BB00086E993E00E94AE06E091B303F091B4038E
:101BC00080819091C903892B80838091CB038111FF
:101BD00011C01EBC00000DB407FEFDCF1EB586E986
:101BE00093E00E94AD0D812F0F90DF91CF911F9157
:101BF0000F9108958130E9F48091C10310E087FDD1
:101C0000EECF08E010E086E993E00E945F06110F36
:101C1000E091B503F091B60380819091BF038923D1
:101C200009F01F5F86E993E00E945406015059F7BE
:101C3000D6CF8091C50387FD1BC0E091BD03F09115
:101C4000BE0380819091C20389238083E091B90310
:101C5000F091BA031082E091B703F091B80380814C
:101C6000E091B903F091BA032FEF2083182FB7CF7B
:101C700080E0FCCF0895FC016370668B84819581C0
:101C800026813781613039F0633029F09187808770
:101C90003387228708953187208793878287089525
:101CA0002F923F924F925F926F927F928F929F926C
:101CB000AF92BF92CF92DF92EF92FF920F931F935A
:101CC000CF93DF93CDB7DEB76A970FB6F894DEBF38
:101CD0000FBECDBF9A8F898F7A8369834A01D22E36
:101CE00018870F833701BC2CDC0159962D913C914C
:101CF0005A972115310509F015C118968D919C91BF
:101D00001997681779070CF0D7C11A968D919C9195
:101D1000481759070CF0D0C14C2C512CB6E0CB9E83
:101D2000600D711D11247C876B87161617060CF049
:101D3000C3C1EA2DF0E0FA87E98793E0EE0FFF1FB9
:101D40009A95E1F7F88BEF87CF01840F951F18164E
:101D500019060CF0B1C1A98DBA8D58968C918111DC
:101D600004C0BFEABD1508F4D394A98DBA8DED91D6
:101D7000FC9111970284F385E02DCD010995B5E022
:101D8000DB9EC0011124E981FA81FC83EB83312CB5
:101D9000212C9C0128593F4F388F2F8B4A2D50E022
:101DA0005E8B4D8BEF89F88DE20DF31D44919E8281
:101DB0008D82D12CC12C69817A81620D731D7A8B41
:101DC000698B842F90E09C8B8B8BE98DFA8DA081A1
:101DD000B18140FF82C0F1E0BF126FC0AF126DC091
:101DE0001C96ED91FC912F813885A4014C0D5D1D51
:101DF00069897A89898D9A8D0995EB89FC89F59590
:101E0000E7954E2F5FEFC51AD50A6D817E818D89CA
:101E10009E89680F791F7E836D8398E0C916D1046F
:101E200081F6AFEF2A1A3A0AEB81FC81E40DF51D29
:101E3000FC83EB83F5E02F16310409F0B3CF2F813B
:101E4000388526153705B9F0A98DBA8DED91FC912D
:101E5000B1E0BB1257C0AB1255C069817A816B5F8C
:101E60007F4F0088F189E02D830128E030E0A40154
:101E7000898D9A8D0995A98DBA8DED91FC91119757
:101E80000688F789E02DCD016A960FB6F894DEBF7B
:101E90000FBECDBFDF91CF911F910F91FF90EF90BB
:101EA000DF90CF90BF90AF909F908F907F906F907A
:101EB0005F904F903F902F9009941E96ED91FC916A
:101EC000EF80F88409851A8592014D815E816B81CE
:101ED0007C81898D9A8D099590CF2F813885261523
:101EE000370509F48ACF31E0B31207C0A31205C049
:101EF0001C96ED91FC91930178CF1E96ED91FC918B
:101F00007301E0CF6B857C85641975090684F785BC
:101F1000E02D73010F8518899201A401898D9A8D96
:101F20000995A9CFF901349694913297459154912E
:101F3000D91AB7E0DB9E400D511D1124F9012591FE
:101F400034913C8B2B8BFA0125903490FA01329618
:101F5000749031963491398B3296649031964490D6
:101F600041E04C1518F04A1508F07FC0662D062C8C
:101F7000000C770B7C836B83842D042C000C990B55
:101F80009E838D83A98DBA8DED91FC91119702846A
:101F9000F385E02DCD010995512CD12CC12CEA2DD2
:101FA000F0E0FA87E9872B2D30E03C872B87A401EE
:101FB000440D511D47FC5A95588F4F8B69817A818A
:101FC000660D711D67FC7A957E876D877989C716C6
:101FD00008F051CF2C2D30E04D815E81420F531F10
:101FE000A985BA854A9FC0014B9F900D5A9F900DBD
:101FF0001124FC01E80DF91DF88BEF87852D612C6C
:102000004F89588D420F531F5E8B4D8B671408F01C
:1020100050C044244394480E877041F4C101019696
:10202000EB89FC89E20DF31DD4901C01D7FE19C089
:10203000A98DBA8DED91FC91662D70E0B1E0BB12D7
:1020400019C0AB1217C02D853E85620F731F048423
:10205000F585E02D2F8138854D895E89898D9A8D92
:102060000995DD0C6394842DD1CF1E821D821C82C4
:102070001B8288CF4B815C81640F751FAB85BC854B
:102080006A9FC0016B9F900D7A9F900D112469810A
:102090007A81680F791F0684F785E02DEF80F88438
:1020A00009851A859D014F855889898D9A8D0995D5
:1020B000D8CF570CC3948ACF6A960FB6F894DEBF78
:1020C0000FBECDBFDF91CF911F910F91FF90EF9089
:1020D000DF90CF90BF90AF909F908F907F906F9048
:1020E0005F904F903F902F9008958F929F92AF9264
:1020F000CF92EF92FF920F931F93CF93DF93EC0158
:10210000262F898D9A8D009709F051C06A30D1F43D
:102110001D861C868D8948E0849F900111248E8540
:102120009F85820F931F9F878E8781E090E0DF91CC
:10213000CF911F910F91FF90EF90CF90AF909F9014
:102140008F9008956D3089F3CC88AD888F8988236E
:10215000C1F08C859D8536E0C39E800D911D1124B4
:10216000488559854817590764F44E855F851D8653
:102170001C8638E0A39EC0011124840F951F9F8701
:102180008E87EA88FB88088919894E855F856C856A
:102190007D85CE010E94500E2C898C859D8546E060
:1021A000249F800D911D11249D878C87BECF6A309E
:1021B00069F41D861C86FC013896E4912D898E8574
:1021C0009F85E29F800D911D1124ADCF6D3009F4E4
:1021D000ACCFFC0134963491631708F4A6CF329645
:1021E000E491E61708F4A1CFFC0132968590949013
:1021F000462F431B342F47E0349F800C911C112441
:10220000F401329634913196E4913323A9F1EE230F
:1022100099F1CC88F4013596E491AD884F89442337
:1022200001F10E2E000CFF0BE30FF11DCE9EA0015D
:10223000CF9E500D11246C857D85460F571F6885F4
:102240007985641775076CF44E855F851D861C863D
:10225000FC013896E491AE9E400D511D11245F871C
:102260004E87EA88FB88088919894E855F856C85C9
:102270007D85CE010E94500EF4013496E4912C89A4
:102280008C859D85E29F800D911D11248DCF6F92CD
:102290007F928F929F92AF92BF92CF92DF92EF92F6
:1022A000FF920F931F93CF93DF93EC016B015A01C1
:1022B00039014801E881F9810284F385E02D09950F
:1022C000E881F9810288F389E02D87019301A50156
:1022D000B601CE010995A501480D591D415051097E
:1022E000E881F9810288F389E02D9301B601CE01DE
:1022F0000995E881F9810088F189E02D9401A50113
:10230000B601CE010995C60CD71CB6016150710902
:10231000E881F9810088F189E02D9401A501CE01C1
:102320000995E881F9810688F789E02DCE01DF91D2
:10233000CF911F910F91FF90EF90DF90CF90BF90C2
:10234000AF909F908F907F906F9009946F927F9243
:102350008F929F92AF92BF92CF92DF92EF92FF92B5
:102360000F931F93CF93DF935C01EB016A01490147
:1023700038018701DC01ED91FC916217730719F5B3
:10238000641675062CF0962D872D3A01C92ED82E8D
:102390009601261937092F5F3F4F048CF58DE02DEC
:1023A000A301BE01C5010995DF91CF911F910F9146
:1023B000FF90EF90DF90CF90BF90AF909F908F9065
:1023C0007F906F9008954615570591F426173707AB
:1023D00024F0892D4B01C22FD82F9E0128193909CD
:1023E0002F5F3F4F068CF78DE02DA601B401DACFA9
:1023F0000284F385E02D0995D501ED91FC910488C7
:10240000F589E02D83019401A601BE01C50109955E
:10241000D501ED91FC910688F789E02DC501DF918A
:10242000CF911F910F91FF90EF90DF90CF90BF90D1
:10243000AF909F908F907F906F9009942F923F92D2
:102440004F925F926F927F928F929F92AF92BF92C4
:10245000CF92DF92EF92FF920F931F93CF93DF9370
:10246000EC015B014A01390118012701760189015C
:102470009A01AB01BC0186E993E00E94A61182019A
:102480009101A301B40186E993E00E94A6118501A0
:102490009E01A201B10186E993E00E94A611DF919D
:1024A000CF911F910F91FF90EF90DF90CF90BF9051
:1024B000AF909F908F907F906F905F904F903F90E4
:1024C0002F900895EF92FF920F931F93DC011A96BD
:1024D0000D911C911B9718962D913C911997ED9198
:1024E000FC9100A0F1A1E02D7B0150E040E070E004
:1024F00060E009951F910F91FF90EF9008954F9222
:102500005F926F927F928F929F92AF92BF92CF9283
:10251000DF92EF92FF920F931F93CF93DF936C01A3
:102520002B015A0139014801DC01ED91FC91028433
:10253000F385E02D0995E201640C751CD601ED913F
:10254000FC91C615D7055CF40088F189E02D870160
:102550009401A501BE01C60109952196EFCF068819
:10256000F789E02DC601DF91CF911F910F91FF9068
:10257000EF90DF90CF90BF90AF909F908F907F9023
:102580006F905F904F9009948F929F92AF92BF92FD
:10259000CF92DF92EF92FF920F931F93CF93DF932F
:1025A000EC015B014A016901E881F9810284F3854C
:1025B000E02D099595012C0D3D1D21503109E88133
:1025C000F9810488F589E02D78018401A401B50121
:1025D000CE010995E881F9810688F789E02DCE01C1
:1025E000DF91CF911F910F91FF90EF90DF90CF90EF
:1025F000BF90AF909F908F9009948F929F92AF92CF
:10260000BF92CF92DF92EF92FF920F931F93CF93DF
:10261000DF93EC015B014A0169017801E881F981EE
:102620000284F385E02D0995C80CD91C8601015060
:102630001109E881F9810488F589E02D9501A4014B
:10264000B501CE010995E881F9810688F789E02D69
:10265000CE01DF91CF911F910F91FF90EF90DF900E
:10266000CF90BF90AF909F908F900994EF92FF9280
:102670000F931F93DC01ED91FC9100A0F1A1E02DDF
:1026800009951F910F91FF90EF9008950F931F935D
:10269000DC01ED91FC91068CF78DE02D09951F91E1
:1026A0000F9108950F931F93DC01ED91FC91048C21
:1026B000F58DE02D09951F910F910895DC01ED91A5
:1026C000FC910084F185E02D09942F923F924F9266
:1026D0005F926F927F928F929F92AF92BF92CF92B2
:1026E000DF92EF92FF920F931F93CF93DF9300D06F
:1026F00000D000D0CDB7DEB73C016A013E832D8308
:10270000FC82EB825801A41AB50AB7FE03C0B1944B
:10271000A194B1088D809E80861A970A97FE03C007
:102720009194819491088A149B045CF0902F812FDE
:102730000D811E819D838E839C2D8D2D6B01692FB4
:10274000782F0C151D055CF09D818E817E836D8335
:10275000692F782F902F812F8601C92ED82E160130
:10276000201A310A2B012D813E81421A530A57FE4D
:1027700003C0519441945108710137FE03C03FEFEB
:10278000E31AF30AF594E7948D819E8186179707E3
:102790005CF5A1E0B0E0BA83A983C016D1064CF184
:1027A000D301ED91FC910484F585E02D2B813C81D2
:1027B000A8016D817E818A149B041CF04D815E818D
:1027C000B801C3010995E418F508F7FE0AC02D8188
:1027D0003E8189819A81280F391F3E832D83E20C27
:1027E000F31C0F5F1F4FD9CF2FEF3FEF3A832983A1
:1027F000D4CF26960FB6F894DEBF0FBECDBFDF91C3
:10280000CF911F910F91FF90EF90DF90CF90BF90ED
:10281000AF909F908F907F906F905F904F903F9080
:102820002F900895089590E080E008950E941B2461
:10283000FB0101900020E9F73197AF01461B570BD0
:10284000DC01ED91FC910280F381E02D09948F92DF
:102850009F92AF92BF92EF92FF920F931F93CF93ED
:10286000DF93CDB7DEB7A1970FB6F894DEBF0FBEEA
:10287000CDBF7C01FA01CB0119A2223008F42AE075
:102880008E010F5D1F4F822E912CB12CA12CBF0108
:10289000A50194010E94B623F901CA016A300CF522
:1028A000605DD8016E938D01232B242B252B79F7A6
:1028B00090E080E0109721F0BD01C7010E9418143C
:1028C000A1960FB6F894DEBF0FBECDBFDF91CF91BA
:1028D0001F910F91FF90EF90BF90AF909F908F90BE
:1028E0000895695CDECFCF93DF93482F50E070E00E
:1028F00060E020E189EF92E00E942714EC016AE495
:1029000071E089EF92E00E9418148C0F9D1FDF91F7
:10291000CF9108950F931F93CF93DF93EC010E9403
:1029200027148C016AE471E0CE010E941814800F14
:10293000911FDF91CF911F910F9108950F931F93D6
:10294000CF93DF93EC010E9418148C016AE471E0CC
:10295000CE010E941814800F911FDF91CF911F911B
:102960000F910895CF92DF92EF92FF920F931F93F2
:10297000CF93DF9370E060E086E993E00E946212FB
:102980000E9476046B017C01C6E9D3E01D861C869B
:102990001F861E868FEF9FEF9B8B8A8B998B888B70
:1029A00011E01C8B1D8B6DE471E0CE010E949E1422
:1029B00080EE9FEF9B8B8A8B998B888B02E00C8B30
:1029C0000D8B2AE042ED54E060E070E0CE010E9401
:1029D00027146EE2CE010E9475102AE045E050E017
:1029E00060E070E0CE010E9427142AE046E050E04B
:1029F00060E070E0CE010E9427146AE471E0CE012D
:102A00000E94181480E098EF9B8B8A8B998B888B9F
:102A100083E08C8B8D8B20E130E04FEE5EEB6DEA36
:102A20007EEDCE010E948A146AE471E0CE010E941C
:102A3000181480EE97E09B8B8A8B998B888B85E0AE
:102A40008C8B8D8B6AE571E0CE010E949E140C8BFD
:102A50000D8B60E671E0CE010E949E141C8B1D8BD5
:102A600060E771E0CE010E949E146BE871E0CE0138
:102A70000E949E1466EA71E0CE010E949E1462ECF0
:102A800071E0CE010E949E1466ED71E0CE010E94BD
:102A90009E1469EE71E0CE010E949E1463E072E024
:102AA000CE010E949E140E9476046C197D098E0945
:102AB0009F09DF91CF911F910F91FF90EF90DF90D1
:102AC000CF900895CF92DF92EF92FF920F931F93D2
:102AD000CF93DF93EC016A017B01C114D104E104BF
:102AE000F10431F4C12C42E1D42E4AE7E42EF12C5A
:102AF0008FA987FD07C061E00E94450461E08FA9AE
:102B00000E94F90361E088AD0E94450461E088AD50
:102B10000E94F9038DA98111A3C040E052E16AE748
:102B200070E0C416D506E606F70640F4769567957C
:102B3000579547958F5F8630A1F787E0982F906A69
:102B4000969599A3809581708AA31BA21CA21DA2B1
:102B50001EA21FB7F8948091EF02811127C0E2E90D
:102B6000F7E08491E4E7F7E09491E82FF0E0EE0FCE
:102B7000FF1FEE5BF84FA591B491EC91E92321F48E
:102B800061E08AE00E94F90361E08AE00E94450466
:102B90008CB580618CBD8CB580648CBD61E08DE0AE
:102BA0000E94450461E08BE00E9445048091EF02A1
:102BB0008F5F8093EF021FBF8EA987FD21C061E068
:102BC0000E94450461E08EA90E94F90364E670E06A
:102BD00080E090E00E949B0460E08EA90E94F903CF
:102BE00064E670E080E090E00E949B0461E08EA9C2
:102BF0000E94F90368EC70E080E090E00E949B0482
:102C00008EA987FF0DC020E050E040E061E0CE01DA
:102C10000E94D20C66E970E080E090E00E949B0484
:102C200008E615E0C8010196F8016491662309F4ED
:102C300063C00E5F1F4FFC01F490EF2CE894E7F89F
:102C40002E2DA801CE010E94D20C0E0D111DF7FEF3
:102C5000E9CF66E970E080E090E00E949B04E2CF5B
:102C600008E817E0F12C8130B9F461E08AA50E94F0
:102C7000450460E08AA50E94F90361E08CA50E94EA
:102C8000450460E08CA50E94F9038BA587FD94CFD5
:102C900060E00E94450490CFF8018491E82FF0E0B5
:102CA000EE0FFF1FE258F84F859194912F8D38A1B8
:102CB0002817390741F461E08F2D0E94450460E038
:102CC0008F2D0E94F903F3940F5F1F4FF4E1FF1261
:102CD000E3CF61E08EA50E94450461E08EA50E94CD
:102CE000F9038FA587FD68CF61E00E94450461E08C
:102CF0008FA50E94F90360CF80EF90E099878887C5
:102D000080E491E09B878A87DF91CF911F910F919B
:102D1000FF90EF90DF90CF9008951F93CF93DF93B4
:102D200085ED8093BC008091810290918202A091F8
:102D30008302B09184020796A11DB11D23E0B695D0
:102D4000A795979587952A95D1F72091BC0024FDEA
:102D500003C01092C90252C0409181025091820278
:102D60006091830270918402452B462B472B69F3B7
:102D70000097A105B10541F02AE22A95F1F700C0BC
:102D80000197A109B109E1CF80918002C1E0C09310
:102D90007F02882399F1D091B8001091BA008091F8
:102DA000BC008A7B8093BC0060E082E10E94F90352
:102DB00060E083E10E94F9031092C902C093CB0244
:102DC0001092CA0261E082E10E94F90361E083E1AE
:102DD0000E94F9038091B9008E7F8093B9008091A1
:102DE000B9008D7F8093B90088E48093B80085E4B2
:102DF0008093BC001093BA00D093B800DF91CF91BC
:102E00001F9108951F920F920FB60F9211242F93C6
:102E10003F938F939F93AF93BF938091F1029091D3
:102E2000F202A091F302B091F4023091F00223E09B
:102E3000230F2D3758F50196A11DB11D2093F002E7
:102E40008093F1029093F202A093F302B093F40204
:102E50008091F5029091F602A091F702B091F802EC
:102E60000196A11DB11D8093F5029093F602A093E7
:102E7000F702B093F802BF91AF919F918F913F916C
:102E80002F910F900FBE0F901F90189526E8230FDB
:102E90000296A11DB11DD2CF1F920F920FB60F92B5
:102EA00011242F933F934F935F936F937F938F934F
:102EB0009F93AF93BF93EF93FF9389EF92E00E94AC
:102EC0004B05FF91EF91BF91AF919F918F917F91B2
:102ED0006F915F914F913F912F910F900FBE0F9087
:102EE0001F9018951F920F920FB60F9211242F93D7
:102EF0008F939F93EF93FF93E0910903F0910A035F
:102F00008081E0910F03F091100382FD1BC090813E
:102F1000809112038F5F8F7320911303821741F00A
:102F2000E0911203F0E0E750FD4F958F809312037C
:102F3000FF91EF919F918F912F910F900FBE0F9066
:102F40001F9018958081F4CF1F920F920FB60F92A9
:102F500011242F933F934F935F936F937F938F939E
:102F60009F93AF93BF93EF93FF938091B900887FB6
:102F7000803609F44AC0F0F5883209F4A5C018F586
:102F8000803109F499C0B8F4882309F4F5C0883079
:102F900009F492C0FF91EF91BF91AF919F918F91F2
:102FA0007F916F915F914F913F912F910F900FBE45
:102FB0000F901F901895883109F486C0803251F720
:102FC0008093C80214C0803409F49BC040F480335D
:102FD000B9F38833F9F68093C80285ECAEC080352A
:102FE00009F483C0883509F494C0883499F60E94A6
:102FF0008D16D0CF883909F48AC038F5883729F082
:1030000050F4883611F0803729F683E08093C902A6
:103010001092C70255C0883809F479C0803919F078
:10302000803809F0B7CF8091C702803208F06FC0B6
:10303000E091C70281E08E0F8093C7028091BB00B0
:10304000F0E0E955FD4F80833BC0803B39F0D0F480
:10305000803A09F477C0883A09F09CCF84E08093E5
:10306000C9021092A6021092A502F0E0E0E00995D4
:103070008091A50281110FC081E08093A50210927A
:10308000850209C0803C09F4A8CF883C09F4A5CF8B
:10309000883B09F07FCFE091A60281E08E0F8093FC
:1030A000A602F0E0EB57FD4F80818093BB0090912A
:1030B000A6028091A50229C08091EE028093BB00F8
:1030C00085EC8093BC0066CF9091ED028091EC027C
:1030D000981758F5E091ED0281E08E0F8093ED0294
:1030E000F0E0E453FD4F8081E9CFE091ED0281E013
:1030F0008E0F8093ED028091BB00F0E0E453FD4F12
:1031000080839091ED028091EC029817C8F285E8D7
:10311000D8CFE091ED0281E08E0F8093ED02809197
:10312000BB00F0E0E453FD4F80838091CB0281111E
:103130005ECF81E08093CA0284EA8093BC00109243
:10314000C90228CF85EC8093BC001092C9028091FF
:10315000C702803230F4E091C702F0E0E955FD4F3C
:1031600010826091C70270E087EA92E0F0E0E0E050
:1031700009951092C7020ECF1092C80238CFE9EF1E
:10318000F2E01382128288EE93E0A0E0B0E0848344
:103190009583A683B7838CE091E09183808385EC4F
:1031A00090E09587848784EC90E09787868780EC11
:1031B00090E0918B808B81EC90E0938B828B82EC02
:1031C00090E0958B848B86EC90E0978B868B118EAC
:1031D000128E138E148EA6E9B3E013961C921E92E3
:1031E000129720EF30E015963C932E93149780E4CD
:1031F00091E017969C938E93169719963C932E9375
:1032000018971B969C938E931A9756961C925697D6
:103210001D961C921E921C971F961C921E921E9722
:1032200081E055968C93559754968C9354972FEF35
:103230003FEF53963C932E93529751963C932E9387
:10324000509757968C93579758961C9258975A9622
:103250001C921E925997D5968C93D5978AE0D69654
:103260008C93D69788E0D7968C93D79789E0D89699
:103270008C93D897DA961C921E92D997DC961C9262
:103280001E92DB97DD961C92DD97DE961C92DE97F0
:103290001092D5031092D6031092D7031092D80340
:1032A0008DE09C968C939C978BE09A968C939A9742
:1032B0008CE09B968C939B97E1E9F7E0E491F0E03A
:1032C000EE0FFF1FE258F84F859194915E969C9304
:1032D0008E935D97E3E7F7E09491D3969C93D39711
:1032E000E5E9F7E0E491F0E0EE0FFF1FE258F84F58
:1032F0002591349194963C932E939397E7E7F7E0CA
:10330000849197968C939797E3E9F7E0E491F0E046
:10331000EE0FFF1FE258F84F2591349192963C939F
:103320002E939197E5E7F7E0249195962C93959746
:10333000E0E9F7E0E491F0E0EE0FFF1FE258F84F0C
:10334000459154915C965C934E935B97E2E7F7E06E
:103350003491D1963C93D197E4E9F7E0E491F0E021
:10336000EE0FFF1FE05AF84F4591549190965C93F1
:103370004E935F97E6E7F7E0E4919996EC9399977F
:10338000E32FE095D296EC93D2979095D4969C93A8
:10339000D497809598968C939897209596962C9391
:1033A00096978EE191E08D939C930895CF93DF9350
:1033B000CDB7DEB7CC54D1090FB6F894DEBF0FBE3F
:1033C000CDBF789484B5826084BD84B5816084BDAE
:1033D00085B5826085BD85B5816085BD80916E00B3
:1033E000816080936E0010928100809181008260E4
:1033F0008093810080918100816080938100809121
:1034000080008160809380008091B100846080930F
:10341000B1008091B00081608093B00080917A000B
:10342000846080937A0080917A00826080937A0031
:1034300080917A00816080937A0080917A00806820
:1034400080937A001092C100E0910903F0910A0381
:1034500082E08083E0910503F09106031082E09101
:103460000703F09108038FEC808310921103E09121
:103470000D03F0910E0386E08083E0910B03F09141
:103480000C03808180618083E0910B03F0910C0339
:10349000808188608083E0910B03F0910C03808130
:1034A00080688083E0910B03F0910C0380818F7D15
:1034B000808363E172E089EF92E00E949E1440E015
:1034C00050E0BA0186E993E00E9462158AE00E940A
:1034D000B80D898361E272E089EF92E00E941814CE
:1034E00089810E9473148BE00E94B80D898368E380
:1034F00072E089EF92E00E94181489810E9473148F
:103500008CE00E94B80D898368E472E089EF92E054
:103510000E94181489810E9473148DE00E94B80DD6
:10352000898369E572E089EF92E00E94181489812D
:103530000E9473148FE00E94B80D89836AE672E0DE
:1035400089EF92E00E94181489810E94731485E12A
:1035500097E00E94BA056AE471E089EF92E00E9468
:1035600018146AE070E080E090E00E949B048BEF0A
:1035700096E00E94BA050E9476046B017C0170E01F
:1035800060E086E993E00E94621260E078EF86E9ED
:1035900093E00E94621260EE77E086E993E00E9479
:1035A00062126FE170E086E993E00E94621270E0BF
:1035B00060E086E993E00E9462120E947604AB010B
:1035C000BC014C195D096E097F092AE030E089EFE2
:1035D00092E00E948A1464EF71E080E090E00E9423
:1035E0009B0481EE96E00E94BA050E94B214AB01E2
:1035F000BC012AE030E089EF92E00E948A1468EB77
:103600007BE080E090E00E949B0487EC96E00E94C3
:10361000BA0580909E0390909F032090A003309065
:10362000A10370E060E086E993E00E94621261010C
:1036300001E0C01AD1080E9476041A8219822981F9
:103640003A8128153905A4F4EE24EA9447E0F42ED3
:10365000860150E040E070E060E086E993E00E947F
:10366000A61149815A814A5F5F4F5A834983E7CF48
:10367000B401615071097A836983B12CA12CA21421
:10368000B3049CF4EE24EA9437E0F32E85012981FB
:103690003A8150E040E070E060E086E993E00E940B
:1036A000A61176E0A70EB11CEACF0E94760470E066
:1036B00060E086E993E00E9462120E947604B12CD9
:1036C000A12CA814B90494F4EE24EA9427E0F22E75
:1036D0008601950150E040E069817A8186E993E0B6
:1036E0000E94A61186E0A80EB11CEBCFB12CA12C34
:1036F000A214B3049CF4EE24EA9497E0F92E850119
:1037000030E020E050E040E069817A8186E993E092
:103710000E94A61196E0A90EB11CEACF0E94760481
:1037200070E060E086E993E00E9462120E947604F5
:10373000B12CA12CA814B90494F4EE24EA9487E0E7
:10374000F82E10E000E09501A60170E060E086E947
:1037500093E00E94A611A6E0AA0EB11CEBCFB12CFB
:10376000A12CA214B30494F4EE24EA9407E0F02E02
:10377000850129813A81A60170E060E086E993E045
:103780000E94A611B6E0AB0EB11CEBCF0E947604EE
:1037900070E060E086E993E00E9462120E94760485
:1037A0002B013C01B12CA12CA814B90494F4EE24F3
:1037B000EA9417E0F12E10E000E09501A60169817E
:1037C0007A8186E993E00E94A61106E0A00EB11C62
:1037D000EBCFB12CA12CA214B30494F4EE24EA9400
:1037E000B7E0FB2E850130E020E0A60169817A81F7
:1037F00086E993E00E94A61116E0A10EB11CEBCF62
:103800000E947604AB01BC01441955096609770989
:103810002AE030E089EF92E00E948A1464EF71E0C0
:1038200080E090E00E949B048DEA96E00E94BA0539
:10383000C0909E03D0909F03E090A003F090A1035E
:1038400070E060E086E993E00E9462120E947604D4
:103850004B015C011A82198229813A812E153F059C
:1038600094F400E018EF960149815A8170E060E01D
:1038700086E993E00E94F70849815A814B5F5F4FC8
:103880005A834983E9CF1A82198269817A816C153A
:103890007D057CF40FE110E0970150E040E086E9FF
:1038A00093E00E94860889819A8105969A8389838C
:1038B000ECCF0E947604AB01BC01481959096A0992
:1038C0007B092AE030E089EF92E00E948A1464EFDD
:1038D00071E080E090E00E949B0483E996E00E9402
:1038E000BA0580909E0390909F0397FE03C09FEFC0
:1038F000891A990A95948794C090A003D090A10347
:10390000D7FE03C0AFEFCA1ADA0AD594C79470E0A5
:1039100060E086E993E00E9462128091A00390919A
:10392000A103A0909E03B0909F038A159B050CF401
:103930005C010E9476042B013C0102E010E01A8336
:10394000098329813A812A153B05CCF4C901969552
:103950008795A601481B590BB401681B790BE0EE53
:10396000EE2EE7E0FE2E890186E993E00E944711E2
:1039700049815A814A5F5F4F5A834983E2CF0E944F
:103980007604AB01BC0144195509660977092AE0A0
:1039900030E089EF92E00E948A1464EF71E080E0E9
:1039A00090E00E949B0489E796E00E94BA0580910E
:1039B0009E0390919F0397FD019695958795BC0175
:1039C000615071097A8369838091A0039091A1036A
:1039D00097FD019695958795DC011197BC83AB8384
:1039E00070E060E086E993E00E9462128091A0039B
:1039F0009091A10300919E0310919F031E830D835C
:103A00008017910714F49E838D83812C912C54018F
:103A10002D813E8112161306DCF56901D594C794F9
:103A20000E9476042B013C012B803C802C183D0821
:103A300049815A814C195D096A0180EEE82EFF2404
:103A4000FA940D811E819801A101B60186E993E0E7
:103A50000E9468090E94760464197509860997090D
:103A6000860E971EA81EB91E9FE1E92E98EFF92E2B
:103A70000D811E819801A101B60186E993E00E94A3
:103A800047116D817E81665071097E836D83C0CF41
:103A90002AE030E0B501A40189EF92E00E948A1487
:103AA00064EF71E080E090E00E949B048FE596E077
:103AB0000E94BA05A0909E03B0909F038090A0033F
:103AC0009090A10370E060E086E993E00E946212AA
:103AD0000E9476042B013C018AE090E09A8389835E
:103AE000A981BA81AA15BB05A4F51AE0C12ED12C73
:103AF000C814D9043CF586E993E00E94C00CA601E5
:103B00004A5051090FE118EF25E130E069817A81CF
:103B100086E993E00E94F409BFE1EB2EB8EFFB2E9B
:103B200010E000E023E04AE050E0B60189819A818C
:103B30000E94350A86E993E00E94AD0DB4E1CB0EF8
:103B4000D11CD6CF09811A810C5E1F4F1A830983BD
:103B5000C7CF0E947604AB01BC0144195509660920
:103B600077092AE030E089EF92E00E948A1485E428
:103B700096E00E94BA0580919E0390919F038C016C
:103B8000065F1F4F18870F838091A0039091A103B8
:103B90008C01065F1F4F1A8709870E947604698B84
:103BA0007A8B8B8B9C8B06EF1FEF1E830D830AE0B5
:103BB00010E01C830B83712C612C0F81188560161B
:103BC00071060CF0D5C0D12CC12C09851A85C01600
:103BD000D1060CF0BDC086E993E00E94C00C2FEF27
:103BE0003FEFA601465F5F4FB30186E993E00E9475
:103BF000B90B2FEF3FEFA6014A505109B30186E9F7
:103C000093E00E94B90B2FEF3FEFA6016B817C81FF
:103C100086E993E00E94B90B2FEF3FEFA6016D817B
:103C20007E8186E993E00E94B90B88248394912CCD
:103C3000512C412CFAE02F2E312C0CEE1FEF1A8361
:103C40000983A7EFAA2EBB24BA941FEF411A510A89
:103C500022E0820E911CA80CB91C7301E40CF51C27
:103C60002FEF3FEF8601020D131D1E870D87A80160
:103C7000B70186E993E00E94B90B83010419150985
:103C80002FEF3FEF4D855E85B80186E993E00E94F6
:103C9000B90B2FEF3FEFA601421953095E874D87FD
:103CA000B70186E993E00E94B90B2FEF3FEF4D85F6
:103CB0005E85B80186E993E00E94B90B82010C0D84
:103CC0001D1D1E870D872FEF3FEFA8018301020DF9
:103CD000131DB80186E993E00E94B90B2FEF3FEF67
:103CE0004D855E85B301621973097E876D8786E90C
:103CF00093E00E94B90B7601E418F5082FEF3FEF2F
:103D0000A701B80186E993E00E94B90B2FEF3FEFBE
:103D1000A7016D857E8586E993E00E94B90B421468
:103D2000530444F086E993E00E94AD0D74E1C70EA0
:103D3000D11C4BCFB7FC89CF11E0211A3108098182
:103D40001A810E5F1F4F1A830983A00EB11E7DCF0B
:103D500084E1680E711C0B811C810C5E1F4F1C835B
:103D60000B830D811E810C5E1F4F1E830D8325CF9B
:103D70000E947604AB01BC0109891A892B893C8910
:103D8000401B510B620B730B2AE030E089EF92E08D
:103D90000E948A1464EF71E080E090E00E949B042E
:103DA0008BE296E00E94BA05A0909E03B0909F031C
:103DB000B7FE03C01FEFA11AB10AB594A7949501ED
:103DC000215031093A832983C090A003D090A103E8
:103DD000D7FE03C03FEFC31AD30AD594C794860118
:103DE000015011091C830B8370E060E086E993E0C9
:103DF0000E94621229813A8138872F8302171307A4
:103E000014F418870F830E9476042B013C010B8168
:103E10001C811A87098748011E821D821C821B8211
:103E2000312C212CAC18BD082F8138852216330681
:103E3000E4F58B819C818827987FCD80DE8030EEF1
:103E4000C32237E0D3228C299D29610153E0D59408
:103E5000C7945A95E1F74FE1C422DD24C82AD92A34
:103E60008501080D191D49855A854A0D5B1D740190
:103E7000940169857A8589819A810E941E1255E094
:103E8000250E311C6B817C817B5F7C836B838D81F4
:103E90009E8188969E838D83A985BA851597BA875A
:103EA000A987B5E08B0E911CBFCF0E947604AB01B1
:103EB000BC0144195509660977092AE030E089EF09
:103EC00092E00E948A1464EF71E080E090E00E942A
:103ED0009B0481E196E00E94BA0500919E03109137
:103EE0009F0317FF02C00F5F1F4F1595079598019D
:103EF000215031093A8B298B4091A0035091A103A5
:103F00005A83498357FF04C04F5F5F4F5A834983E9
:103F100069817A81759567957C836B837B0171E0FC
:103F2000E71AF10870E060E086E993E00E9462120F
:103F30000E94760489899A899A838983E816F9060A
:103F400014F4FA82E982D70129813A81A21BB30BCA
:103F5000BE83AD83198E1A8E1B8E1C8E4B815C81A5
:103F60004150510925965FAF4EAF2597B80161507A
:103F7000710927967FAF6EAF2797C801AB81BC81CF
:103F80008A1B9B0B29969FAF8EAF299712972B9672
:103F9000BFAFAEAF2B9709811A810B3011050CF41E
:103FA000F5C10E9476046BAB7CAB8DAB9EAB1AE087
:103FB000019FC02C11242C2D30E03AA329A36901C4
:103FC00083E0CC0CDD1C8A95E1F7A601407E57709A
:103FD0005AAB49ABC90123E0959587952A95E1F73E
:103FE000482B592B5CA34BA325966EAD7FAD25972F
:103FF00089819A81680F791F7C836B832796AEAD88
:10400000BFAD2797A80FB91FBE8FAD8F29960EADF4
:104010001FAD29972D813E81020F131F18A30F8F0B
:10402000621773070CF491C3A988BA888D819E81A9
:104030009A878987AB81BC81B887AF830D8D1E8D30
:104040001E8B0D8B8F8C98A086E993E00E94C00C8C
:104050008F819885A985BA858A179B0709F064C066
:104060008A149B0454F09A2D8B2DA814B90414F4CF
:10407000982D892D4501A92EB82E4D895E894815A8
:10408000590534F0A416B5060CF45A019E8A8D8A9F
:1040900095016D897E89261B370B2F5F3F4F0BA142
:1040A0001CA149855A8586E993E00E94100B86E998
:1040B00093E00E94AD0D0E9476040BA91CA92DA9C6
:1040C0003EA9601B710B820B930B298D3A8D4B8D92
:1040D0005C8D260F371F481F591F298F3A8F4B8F32
:1040E0005C8F49A15AA1D42ECC24CC2458EFD522E0
:1040F00069A97AA9C62AD72AEB80FC800D8D1E8D6E
:1041000097014F8D58A16D817E8189899A890E947E
:104110001E1289819A8105979A838983AD81BE8118
:104120001596BE83AD8337CFC4018A199B092B81B5
:104130003C81A985BA852A1B3B0B0D891E890A196A
:104140001B091AA709A74F8158854A1B5B0B5E877D
:104150004D876D897E89681979097CA76BA7AF8126
:10416000B8850B811C81A01BB10BBEA3ADA34F81F1
:1041700058854017510709F489C02B966EAD7FAD65
:104180002B97A981BA816A0F7B1F7E8B6D8B298447
:104190003A84412C512C3201C12CD12C760149A5F5
:1041A0005AA5052E000C660B770B4DA75EA76FA7CF
:1041B00078ABA901330F660B770B4FAB58AF69AFE4
:1041C0007AAF0D851E85012E000C220B330B0BAF31
:1041D0001CAF2DAF3EAF9C01990F440B550B23969E
:1041E0002CAF3DAF4EAF5FAF23974D895E8942152F
:1041F00053050CF450C0C701B6012FA938AD49AD25
:104200005AAD0E94D8238501020F131F2D961FAFB0
:104210000EAF2D97C301B2012BAD3CAD4DAD5EADE0
:104220000E94D823B501620F731F23962CAD3DADBC
:104230004EAD5FAD2397C20ED31EE41EF51E8DA5B5
:104240009EA5AFA5B8A9480E591E6A1E7B1E601711
:1042500071074CF0962F872FB8012C969FAF2C97A3
:104260002D968FAF2D972D962EAD3FAD2D97261BFA
:10427000370B2F5F3F4F0BA11CA1A10186E993E0F3
:104280000E94100B9FEF291A390AAFCF0F811885B2
:104290001E8B0D8B7CCF0BA51CA5012E000C220BB9
:1042A000330B0D8B1E8B2F8B388F91014B815C81D3
:1042B000241B350BABA5BCA50E94F7236B017C0129
:1042C000910169857A85261B370BA9A5BAA50E949D
:1042D000F7232B013C018DA19EA1092E000CAA0BF6
:1042E000BB0B8DA39EA3AFA3B8A70D851E85012E82
:1042F000000C220B330B0D871E872F87388B2F81E5
:104300003885221533050CF4D2CEC701B6012DA194
:104310003EA14FA158A50E94D8238401020F131F6C
:104320001A870987C301B2012D853E854F855889BB
:104330000E94D823B501620F731F2D893E894F89D2
:10434000588DC20ED31EE41EF51E8DA59EA5AFA5E9
:10435000B8A9480E591E6A1E7B1E601771072CF003
:10436000962F872FB80199878A8729853A85261B3A
:10437000370B2F5F3F4F0BA11CA1A10186E993E0F2
:104380000E94100B9FEF291A390AB9CF2AE030E0BA
:10439000498D5A8D6B8D7C8D89EF92E00E948A1435
:1043A00064EF71E080E090E00E949B0487EF95E06D
:1043B0000E94BA0580919E0390919F0397FD0196FC
:1043C000959587958C01015011091E830D8380916D
:1043D000A0039091A10397FD0196959587959C0167
:1043E0002150310938872F8370E060E086E993E03F
:1043F0000E9462128091A0039091A10340909E03BD
:1044000050909F03841595050CF42C010E947604AE
:1044100069877A878B879C871A821982F12CE12C15
:10442000E414F5040CF092C0C70196958795898035
:104430009A80882438EF93222F803884281A390AEA
:10444000CD80DE80C81AD90AA701A3E0569547950A
:10445000AA95E1F75E874D878417950714F49E8728
:104460008D8786E993E00E94C00C8D859E85880F1C
:10447000991F5701A81AB90A6D847E846C0C7D1CA3
:1044800084019501A101B30186E993E00E94100B1C
:10449000B701620D731D7C836B83AB0141505109E1
:1044A0009501B30186E993E00E94100B8D859E85EE
:1044B000280E391E9501A101B60186E993E00E94FC
:1044C000F409CE0CDF1CB601615071099501A10100
:1044D00086E993E00E94F40921E04D855E85B101F3
:1044E000C3010E94EB0BAD85BE85CA1ADB0AB1E0A1
:1044F000CB1AD10822E04D855E85B101C6010E942C
:10450000EB0BAB80BC800D851E85A01AB10A11E0B3
:10451000A11AB108840124E04D855E85B501C6016C
:104520000E94EB0B28E04D855E85B501C3010E941A
:10453000EB0B86E993E00E94AD0D26E0E20EF11C44
:1045400049815A815A5F5A8349836ACF0E9476040F
:10455000AB01BC0109851A852B853C85401B510B9D
:10456000620B730B2AE030E089EF92E00E948A141C
:1045700064EF71E080E090E00E949B048DED95E097
:104580000E94BA0580919E0390919F0397FD01962A
:10459000959587959C012150310938872F8380910B
:1045A000A0039091A10397FD019695958795AC0185
:1045B000415051095A87498770E060E086E993E0ED
:1045C0000E9462120E9476042B013C018091A0039C
:1045D0009091A10360919E0370919F037E876D87E8
:1045E0008617970714F49E878D878D859E8553E0E7
:1045F000880F991F5A95E1F79A838983AD85BE8507
:10460000A531B1050CF464C0CD019595879529803D
:104610003A80B0EE2B22B7E03B2289849A84881A34
:10462000990A0F811885081B190B1C830B83CD84F5
:10463000DE8443E0D594C7944A95E1F78C159D0537
:104640000CF46C0186E993E00E94C00CC601880F4F
:10465000991FAD84BE84A81AB90A2B813C812C0D08
:104660003D1D3E832D8371010D851E859501A4019D
:104670006D817E8186E993E00E94500B31E0A31AA0
:10468000B1088C0C9D1C8B819C81800F911F8C1913
:104690009D09850121E0A601B40101970E94350A18
:1046A00022E0A601B4018D819E810E94350A86E92F
:1046B00093E00E94AD0D4D855E85465051095E87A1
:1046C0004D8769817A81605371097A83698396CFB6
:1046D0000E947604AB01BC014419550966097709AB
:1046E0002AE030E089EF92E00E948A1464EF71E0E2
:1046F00080E090E00E949B0487ED95E00E94BA055F
:104700006AE471E089EF92E00E94181400E010E082
:104710001982698186E993E00E947E0D0E94B2149D
:1047200068EE73E080E090E00E949B0479817F5FF7
:104730007983743071F70115110551F30E94370523
:10474000882331F30E940000E3CFAF8CB8A02B8107
:104750003C813A8729874D815E8158874F836989DB
:104760007A897E8B6D8B8D8C9E8C6ECCA1E21A2EFD
:10477000AA1BBB1BFD010DC0AA1FBB1FEE1FFF1F05
:10478000A217B307E407F50720F0A21BB30BE40B55
:10479000F50B661F771F881F991F1A9469F760959C
:1047A0007095809590959B01AC01BD01CF01089556
:1047B000052E97FB1EF400940E94EF2357FD07D0AF
:1047C0000E94B62307FC03D04EF40C94EF235095BF
:1047D0004095309521953F4F4F4F5F4F08959095ED
:1047E0008095709561957F4F8F4F9F4F08950E94E0
:1047F000FF23332312F48A1B9B0B0C941024A29FDB
:10480000B001B39FC001A39F700D811D1124911DA4
:10481000B29F700D811D1124911D08950E94FF23E8
:10482000B7FF0895821B930B0895EE0FFF1F0590AD
:10483000F491E02D099481E090E0F8940C94202408
:04484000F894FFCF1A
:10484400FFFFFFFFFFFFFFFF000000006D05CD0429
:10485400FA04D5052B0509051D0500000000751097
:10486400CD04131412148507C00CB90B500BF409B2
:10487400100B6513AD0D7E0D310D8608F708680920
:104884006212A61147116215F7060D0A0048656CFD
:104894006C6F20576F726C64210047726F6F7000E9
:1048A4004920696D706C6F726520746865652C00B1
:1048B4006D7920666F6F6E74696E67207475726CA3
:1048C400696E6764726F6D65732E00416E64206853
:1048D4006F6F7074696F75736C79206472616E6741
:1048E4006C65206D650077697468206372696E6B0E
:1048F4006C792062696E646C65777572646C65733B
:104904002C004F7220492077696C6C2072656E64AC
:10491400207468656500696E2074686520676F623D
:1049240062657277617274730077697468206D7957
:1049340020626C7572676C656372756E6368656F0F
:104944006E2C00736565206966204920646F6E27AC
:10495400742100494C49393334312054657374212E
:1049640000446973706C617920506F776572204DD3
:104974006F64653A203078004D414443544C204DD7
:104984006F64653A20307800506978656C20466F12
:10499400726D61743A20307800496D616765204614
:1049A4006F726D61743A2030780053656C662044F0
:0E49B4006961676E6F737469633A2030780032
:00000001FF
