:100000000C941B030C9443030C9443030C9475163B
:100010000C9475160C9475160C9443030C94C1152E
:100020000C9443030C9443030C9443030C94430338
:100030000C9443030C9443030C9443030C94430328
:100040000C9477150C9443030C9443160C941D16D2
:100050000C9443030C9443030C9443030C94430308
:100060000C94ED160C944303EF03038002CF0300BE
:10007000C130ED0464031281E803850078CB0539B3
:100080002C003402F70120EA020000C00123C10164
:1000900010C5023E28C701863601483701003A01E3
:1000A00055B1020018B603088227F20100260101AB
:1000B000E00F0F312B0C0E084EF1370710030E091D
:1000C00000E10F000E1403110731C148080F0C3175
:1000D000360F118029800000000000003E5B4F5B5E
:1000E0003E3E6B4F6B3E1C3E7C3E1C183C7E3C18DB
:1000F0001C577D571C1C5E7F5E1C00183C1800FFBF
:10010000E7C3E7FF0018241800FFE7DBE7FF3048EC
:100110003A060E2629792926407F050507407F05E6
:10012000253F5A3CE73C5A7F3E1C1C08081C1C3EDD
:100130007F14227F22145F5F005F5F06097F017FCB
:10014000006689956A606060606094A2FFA294086E
:10015000047E040810207E201008082A1C08081CB1
:100160002A08081E101010100C1E0C1E0C30383EF1
:100170003830060E3E0E06000000000000005F0052
:10018000000007000700147F147F14242A7F2A121E
:100190002313086462364956205000080703000004
:1001A0001C2241000041221C002A1C7F1C2A080836
:1001B0003E08080080703000080808080800006049
:1001C000600020100804023E5149453E00427F4035
:1001D0000072494949462141494D331814127F1094
:1001E00027454545393C4A494931412111090736DE
:1001F00049494936464949291E000014000000407B
:100200003400000008142241141414141400412274
:10021000140802015909063E415D594E7C12111223
:100220007C7F494949363E414141227F4141413E1F
:100230007F494949417F090909013E414151737F85
:100240000808087F00417F41002040413F017F08AE
:100250001422417F404040407F021C027F7F0408FF
:10026000107F3E4141413E7F090909063E4151212F
:100270005E7F09192946264949493203017F010356
:100280003F4040403F1F2040201F3F4038403F63D9
:100290001408146303047804036159494D43007F33
:1002A0004141410204081020004141417F04020104
:1002B00002044040404040000307080020545478A6
:1002C000407F284444383844444428384444287FF4
:1002D000385454541800087E090218A4A49C787F4E
:1002E0000804047800447D40002040403D007F1019
:1002F00028440000417F40007C047804787C080496
:1003000004783844444438FC182424181824241849
:10031000FC7C08040408485454542404043F442436
:100320003C4040207C1C2040201C3C4030403C4451
:10033000281028444C9090907C4464544C4400080D
:10034000364100000077000000413608000201023B
:1003500004023C2623263C1EA1A161123A40402003
:100360007A3854545559215555794122545478427C
:10037000215554784020545579400C1E5272123940
:1003800055555559395454545939555454580000F9
:10039000457C410002457D420001457C407D1211B3
:1003A000127DF0282528F07C545545002054547CBB
:1003B000547C0A097F4932494949323A4444443A13
:1003C000324A4848303A4141217A3A424020780046
:1003D0009DA0A07D3D4242423D3D4040403D3C24E9
:1003E000FF2424487E4943662B2FFC2F2BFF09292D
:1003F000F620C0887E090320545479410000447DD2
:10040000413048484A32384040227A007A0A0A721B
:100410007D0D19317D2629292F28262929292630C5
:10042000484D4020380808080808080808382F10E8
:10043000C8ACBA2F102834FA00007B000008142A38
:10044000142222142A14085500550055AA55AA55FD
:10045000AAFF55FF55FF000000FF00101010FF001D
:10046000141414FF001010FF00FF1010F010F0140F
:100470001414FC001414F700FF0000FF00FF141414
:10048000F404FC141417101F10101F101F14141460
:100490001F00101010F0000000001F101010101F9F
:1004A00010101010F010000000FF101010101010AD
:1004B000101010FF10000000FF140000FF00FF00EC
:1004C000001F10170000FC04F41414171017141464
:1004D000F404F40000FF00F714141414141414F7B7
:1004E00000F7141414171410101F101F141414F410
:1004F000141010F010F000001F101F0000001F1457
:10050000000000FC140000F010F01010FF10FF14A9
:100510001414FF141010101F00000000F010FFFF53
:10052000FFFFFFF0F0F0F0F0FFFFFF000000000021
:10053000FFFF0F0F0F0F0F3844443844FC4A4A4A5C
:10054000347E02020606027E027E02635549416342
:100550003844443C04407E201E2006027E0202995C
:10056000A5E7A5991C2A492A1C4C7201724C304AF5
:100570004D4D303048784830BC625A463D3E49497E
:1005800049007E0101017E2A2A2A2A2A44445F4426
:100590004440514A444040444A51400000FF010356
:1005A000E080FF000008086B6B0836123624360620
:1005B0000F090F060000181800000010100030404E
:1005C000FF0101001F01011E00191D1712003C3C14
:1005D0003C3C000000000002000000002400270056
:1005E0002A000000000800020100000304070000C8
:1005F0000000000000000000000023002600290089
:1006000001020408102040800102040810200102A9
:100610000408102000000000250028002B0004041E
:10062000040404040404020202020202030303039A
:1006300003030818B51D11241FBECFEFD8E0DEBF9D
:10064000CDBF11E0A0E0B1E0E4EEF4E402C005901B
:100650000D92AA3EB107D9F723E0AAEEB1E001C09E
:100660001D92A53CB207E1F713E0CAE1D3E004C054
:100670002197FE010E947321C931D107C9F70E9459
:1006800088190C9465220C940000FC01538D448D54
:10069000252F30E0842F90E0821B930B541710F02D
:1006A000CF96089501970895FC01918D828D98173A
:1006B00061F0A28DAE0FBF2FB11D5D968C91928D12
:1006C0009F5F9F73928F90E008958FEF9FEF089543
:1006D0002FB7F8948091BE029091BF02A091C00202
:1006E000B091C1022FBF8093CA029093CB02A09316
:1006F000CC02B093CD0282EC92E00E94540397FFAB
:1007000026C02FB7F8948091BE029091BF02A091AD
:10071000C002B091C1022FBF4091CA025091CB02DA
:100720006091CC027091CD02841B950BA60BB70B88
:100730004091C6025091C7026091C8027091C902EF
:1007400084179507A607B707B0F28FEF9FEF0895BC
:10075000FC01918D828D981731F0828DE80FF11D8B
:10076000858D90E008958FEF9FEF0895FC01918DA6
:10077000228D892F90E0805C9F4F821B91098F739F
:1007800099270895FC01A48DA80FB92FB11DA35A74
:10079000BF4F2C91848D90E001968F739927848FA1
:1007A000A689B7892C93A089B1898C9183708064C4
:1007B0008C93938D848D981306C00288F389E02D65
:1007C00080818F7D80830895EF92FF920F931F9316
:1007D000CF93DF93EC0181E0888F9B8D8C8D9813F4
:1007E0001AC0E889F989808185FF15C09FB7F89400
:1007F000EE89FF896083E889F9898081837080644C
:1008000080839FBF81E090E0DF91CF911F910F9196
:10081000FF90EF900895F62E0B8D10E00F5F1F4FA5
:100820000F731127E02E8C8D8E110CC00FB607FCB4
:10083000FACFE889F989808185FFF5CFCE010E9442
:10084000C203F1CFEB8DEC0FFD2FF11DE35AFF4FEB
:10085000F0829FB7F8940B8FEA89FB8980818062D0
:10086000CFCFCF93DF93EC01888D8823B9F0AA898D
:10087000BB89E889F9898C9185FD03C0808186FD5B
:100880000DC00FB607FCF7CF8C9185FFF2CF8081AA
:1008900085FFEDCFCE010E94C203E9CFDF91CF915A
:1008A000089582EC92E00E94B60321E0892B09F4BE
:1008B00020E0822F089580E090E0892B29F00E94AB
:1008C000510481110C9400000895833081F028F4C4
:1008D000813099F08230A9F008958730A9F08830EE
:1008E000C9F08430B1F4809180008F7D03C0809185
:1008F00080008F7780938000089584B58F7784BDC2
:10090000089584B58F7DFBCF8091B0008F77809361
:10091000B00008958091B0008F7DF9CFCF93DF9321
:10092000282F30E0F901EE51FA4F8491F901E0509F
:10093000FA4FD491F901E25EF94FC491CC23A1F0B2
:1009400081110E946504EC2FF0E0EE0FFF1FEA50CA
:10095000FA4FA591B491EC91ED2381E090E009F478
:1009600080E0DF91CF91089580E090E0FACF1F936F
:10097000CF93DF93282F30E0F901EE51FA4F8491A5
:10098000F901E050FA4FD491F901E25EF94FC491B8
:10099000CC23A9F0162F81110E946504EC2FF0E002
:1009A000EE0FFF1FEC5EF94FA591B4918FB7F8944D
:1009B000EC91111108C0D095DE23DC938FBFDF913D
:1009C000CF911F910895DE2BF8CFCF93DF9390E066
:1009D000FC01E050FA4F2491825E994FFC01849112
:1009E0008823D1F090E0880F991FFC01E852FA4F5C
:1009F000A591B491FC01EC5EF94FC591D4916111C0
:100A00000EC09FB7F8948C91E22FE0958E238C93C3
:100A10002881E223E8839FBFDF91CF9108958FB7AC
:100A2000F894EC91E22BEC938FBFF6CF3FB7F8949C
:100A30008091BA029091BB02A091BC02B091BD021C
:100A400026B5A89B05C02F3F19F00196A11DB11D29
:100A50003FBFBA2FA92F982F8827BC01CD01620F65
:100A6000711D811D911D42E0660F771F881F991F20
:100A70004A95D1F708958F929F92AF92BF92CF92ED
:100A8000DF92EF92FF924B015C010E9416056B0111
:100A90007C010E9416056C197D098E099F09683E2C
:100AA000734081059105A8F321E0821A9108A108FD
:100AB000B10888EEC80E83E0D81EE11CF11C811439
:100AC0009104A104B10429F7FF90EF90DF90CF903B
:100AD000BF90AF909F908F900895909108018913D7
:100AE0000BC0E7EDF5E0E4919FEF90930801E13052
:100AF00049F028F0E23061F060E00C94B704109205
:100B00006E00FACF90916F009D7F90936F00F4CFAD
:100B1000909170009D7F9093700091E09093B00051
:100B20009091B100987F94609093B1001092B300BF
:100B3000E3CFAF92BF92CF92DF92EF92FF920F93EB
:100B40001F93CF93DF936C017B018B01040F151F63
:100B5000EB015E01AE18BF08C017D10759F06991CB
:100B6000D601ED91FC910190F081E02DC60109952F
:100B7000892B79F7C501DF91CF911F910F91FF90DC
:100B8000EF90DF90CF90BF90AF90089520919E029C
:100B900030919F022817390771F490919C0280913F
:100BA0009D02981741F0E0919C02F0E0E45AFD4F5D
:100BB000808190E008958FEF9FEF08950895EF9260
:100BC000FF920F931F93CF93DF93DC015C96ED9020
:100BD000FC905D97E114F10479F481E090E01396C4
:100BE0009C938E93129790E080E0DF91CF911F91BC
:100BF0000F91FF90EF9008955196ED91FC915297CF
:100C000050968C915097982F90950FB75E962C9197
:100C10005E97122F127021FD6095F89420811123A8
:100C200019F1282B2083E7012197F1F728E0462FBF
:100C300050E0308160FF1AC0382B3083E7012197E4
:100C4000F1F7BA0175956795215089F7112381F065
:100C50008081892380830FBF5C968D919C91019741
:100C6000F1F781E090E0C1CF2923DCCF3923E5CF34
:100C70009081892BEFCF20919E0230919F022817FF
:100C8000390761F480919D0220919C0290E0805C84
:100C90009F4F821B91098F739927089590E080E000
:100CA000089520919E0230919F0228173907B9F4C8
:100CB00090919C0280919D02981789F0E0919C028E
:100CC000F0E0E45AFD4F808120919C0230E02F5FDC
:100CD0003F4F2F73332720939C0290E008958FEFAE
:100CE0009FEF089520911202260F3327331F2132E0
:100CF0003105ECF420913602FC0190E080E02430D4
:100D000069F082E00895A09112022191AC014E5049
:100D10005E4FA40FB52FB11D2C930196861798F343
:100D200080911202680F6093120280E0089581E0C2
:100D300008958FEF9FEF08958FEF9FEF08958091B3
:100D4000EB0190E09195819591090895CF93DF9300
:100D5000CB01EA01642F0E947206CE01DF91CF9190
:100D60000895CF93DF931F92CDB7DEB7698361E01B
:100D7000CE0101960E94720681E090E00F90DF9113
:100D8000CF910895FC01A5A1B6A18C9192A58923CC
:100D90008C93A5A1B6A18C9191A5892B8C930895D4
:100DA0000F931F93CF93DF93EC018B018DA98111DA
:100DB0000DC01EBD0DB407FEFDCF0EBD0DB407FE68
:100DC000FDCFDF91CF911F910F9108958130E9F40C
:100DD00080E1E9A1FAA1908117FF14C02DA1922B07
:100DE0009083EBA1FCA190812FA1922B9083EBA18A
:100DF000FCA1908128A592239083000F111F8150A0
:100E000041F7DFCF2EA19223EBCFEF8DF8A1108316
:100E1000CE010E94C206EF8DF8A10083CE01DF91C2
:100E2000CF911F910F910C94C206FC0185A98111ED
:100E300005C06EBD0DB407FEFDCF08958130E1F40D
:100E400088E0A1A1B2A19C9167FF13C025A1922BBC
:100E50009C93A3A1B4A19C9127A1922B9C93660F74
:100E6000A3A1B4A19C9120A592239C93815049F702
:100E7000089526A19223ECCFA78DB0A16C93CF014A
:100E80000C94C206CF93DF93EC01ED8DFE8D808133
:100E90009CA989238083CE010E941507ED8DFE8DCC
:100EA00080819BA9892B8083DF91CF910895FC01DC
:100EB00085A9811104C091A182A19CBD8DBD089519
:100EC0001F93CF93DF93EC01162FE881F981028401
:100ED000F385E02D0995112371F06DADCE010E94CF
:100EE0004207E881F9810688F789E02DCE01DF917C
:100EF000CF911F9109946EADF1CFAF92BF92CF9277
:100F0000DF92EF92FF920F931F93CF93DF93EC0149
:100F100077FD38C088859985681779079CF557FD56
:100F200031C08A859B854817590764F569017A01A4
:100F30005B01E881F9810284F385E02DCE010995FA
:100F4000E881F98102A4F3A5E02D01E010E021E0A1
:100F500030E0A701B501CE010995B601CE010E948E
:100F6000D006E881F9810688F789E02DCE01DF916E
:100F7000CF911F910F91FF90EF90DF90CF90BF9096
:100F8000AF900994DF91CF911F910F91FF90EF9057
:100F9000DF90CF90BF90AF9008958F929F92AF92C5
:100FA000BF92CF92DF92EF92FF920F931F93CF9356
:100FB000DF93EC0149015701E881F98102A4F3A50F
:100FC000E02D09959401D8010E9464216B017C01F8
:100FD000C114D104E104F10409F490C08DA9811178
:100FE00015C081E0C81AD108E108F1088FEFC816D2
:100FF000D806E806F80609F481C0BEBC0DB407FEA9
:10100000FDCFAEBC0DB407FEFDCFEBCF813009F0B4
:1010100045C081E0C81AD108E108F1088FEFC81671
:10102000D806E806F80609F469C09B2D88E0E9A116
:10103000FAA1208197FF2CC03DA1232B2083EBA197
:10104000FCA120813FA1232B2083EBA1FCA12081C7
:1010500038A523232083990F815049F79A2D88E0E2
:10106000E9A1FAA1208197FF16C03DA1232B20837F
:10107000EBA1FCA120813FA1232B2083EBA1FCA1AC
:10108000208138A523232083990F815049F7C1CFB0
:101090003EA12323D3CF3EA12323E9CFBA1016C00C
:1010A000CC0CDD1CEE1CFF1CEF8DF8A1B08281E0A2
:1010B000C81AD108E108F1088FEFC816D806E8066B
:1010C000F806E1F0CE010E94C206F1CF81E0C81A15
:1010D000D108E108F1088FEFC816D806E806F8062F
:1010E00069F0EF8DF8A1B082CE010E94C206EF8DAB
:1010F000F8A1A082CE010E94C206E8CFDF91CF9175
:101100001F910F91FF90EF90DF90CF90BF90AF9025
:101110009F908F9008958F929F92AF92BF92CF929F
:10112000DF92EF92FF920F931F93CF93DF935C01B7
:101130004B016A01E90177FD52C0DC0118968D91DF
:101140009C91681779070CF04AC0209709F447C0B2
:1011500037FF07C0C9010196C80ED91ED195C195A8
:10116000D109F50182859385C816D906C4F5A60173
:101170004C0F5D1F9A012150310937FD30C0D7FE59
:1011800003C0EA01D12CC12C281739071CF0EC014F
:10119000CC19DD09D501ED91FC910284F385E02D98
:1011A000C501099578018E0121E030E0A601B40166
:1011B000C5010E94CD07D501ED91FC910688F78904
:1011C000E02DC501DF91CF911F910F91FF90EF901E
:1011D000DF90CF90BF90AF909F908F900994DF9158
:1011E000CF911F910F91FF90EF90DF90CF90BF9024
:1011F000AF909F908F9008958F929F92AF92BF92E1
:10120000CF92DF92EF92FF920F931F93CF93DF93D2
:101210005C016B014A01E90157FD52C0DC011A96DD
:101220008D919C91481759070CF04AC0209709F4FA
:1012300047C037FF07C0C9010196C80ED91ED19516
:10124000C195D109F50180859185C816D906C4F5E7
:10125000A6014C0F5D1F9A012150310937FD30C0A6
:10126000D7FE03C0EA01D12CC12C281739071CF086
:10127000EC01CC19DD09D501ED91FC910284F385D7
:10128000E02DC5010995780101E010E09E01A4015F
:10129000B601C5010E94CD07D501ED91FC910688EC
:1012A000F789E02DC501DF91CF911F910F91FF903C
:1012B000EF90DF90CF90BF90AF909F908F90099468
:1012C000DF91CF911F910F91FF90EF90DF90CF9022
:1012D000BF90AF909F908F9008958F929F92AF9202
:1012E000BF92CF92DF92EF92FF920F931F93CF9313
:1012F000DF934C016B015A01E901209709F46CC09E
:101300000115110509F468C037FF07C0C90101962E
:10131000C80ED91ED195C195D109F401A085B1851A
:10132000CA16DB060CF058C017FF07C0C8010196AB
:10133000A80EB91E119501951109F40182859385B6
:10134000A816B9060CF048C0F601EC0FFD1FAF015E
:101350004150510957FD40C0B501600F711F9B01FD
:101360002150310937FD38C0D7FE03C0EF01D12C21
:10137000C12CB7FE03C08B01B12CA12C4A175B070F
:101380001CF0ED01CC19DD09281739071CF08C0180
:101390000A191B09D401ED91FC910284F385E02D1B
:1013A000C40109959E01A501B601C4010E94CD07A3
:1013B000D401ED91FC910688F789E02DC401DF91FD
:1013C000CF911F910F91FF90EF90DF90CF90BF9042
:1013D000AF909F908F900994DF91CF911F910F91C3
:1013E000FF90EF90DF90CF90BF90AF909F908F9045
:1013F0000895EF92FF920F931F93CF93DF9377FDA2
:1014000032C0DC011896ED91FC916E177F075CF5F8
:101410002115310541F137FF07C0F90131964E0F13
:101420005F1F319521953109DC011A96ED91FC91F0
:101430004E175F07C4F4EA01C20FD31FDE011197F4
:10144000B7FD11C057FF03C09E0150E040E0AE174A
:10145000BF071CF09F01241B350B7801890121E097
:1014600030E00E94CD07DF91CF911F910F91FF9047
:10147000EF900895EF92FF920F931F93CF93DF9316
:1014800057FD31C0DC011A96ED91FC914E175F07B4
:1014900054F52115310539F137FF07C0F9013196AF
:1014A0006E0F7F1F319521953109DC011896ED9162
:1014B000FC916E177F07BCF4EB01C20FD31FDE0156
:1014C0001197B7FD10C077FF03C09E0170E060E088
:1014D000AE17BF071CF09F01261B370B780101E0F8
:1014E00010E00E94CD07DF91CF911F910F91FF90E7
:1014F000EF9008958F929F92AF92BF92CF92DF921A
:10150000EF92FF920F931F93CF93DF934701211523
:10151000310509F44BC00115110509F447C037FF27
:1015200007C0F90131966E0F7F1F31952195310962
:10153000DC011896AD90BC906A157B05BCF517FFD1
:1015400007C0F80131964E0F5F1F119501951109E3
:10155000DC011A96ED91FC914E175F073CF56B018B
:10156000C20ED31EE6012197D7FD20C07A01E00EFE
:10157000F11ED7011197B7FD19C077FF03C096017F
:1015800070E060E057FF03C0870150E040E0CA15FB
:10159000DB051CF09501261B370BAE17BF071CF0AF
:1015A0008F01041B150B74010E94CD07DF91CF91B1
:1015B0001F910F91FF90EF90DF90CF90BF90AF9071
:1015C0009F908F900895EF92FF920F931F93CF9368
:1015D000DF93EC0177FD22C088859985681779072C
:1015E000ECF457FD1BC08A859B8548175907B4F456
:1015F0007901E881F98102A4F3A5E02D01E010E072
:1016000021E030E0CE010995B701CE01DF91CF9105
:101610001F910F91FF90EF900C94D006DF91CF9126
:101620001F910F91FF90EF900895CF93DF93EC01FE
:101630000E9457078FA987FD06C0EB8DFC8D808126
:101640009AA989238083DF91CF9108950895AF925D
:10165000BF92CF92DF92EF92FF920F931F93CF939F
:10166000DF93EC01E62E8A01A22E0E9457078FA974
:1016700087FD06C0EB8DFC8D80819AA9892380832C
:10168000ED8DFE8D80819CA9892380836E2DCE01F6
:101690000E941507ED8DFE8D80819BA9892B80838B
:1016A000D12CC12CB12CCA14DB04E4F48DA978012F
:1016B000823079F488A9882361F0F80161917191F1
:1016C0007F01CE010E94D006FFEFCF1ADF0A87010B
:1016D000EACFFFEFEF1AFF0AF8016491CE010E94F2
:1016E0001507F2CF8FA987FD06C0EB8DFC8D808199
:1016F00099A9892B8083DF91CF911F910F91FF9042
:10170000EF90DF90CF90BF90AF900895FC0187A934
:1017100087FD06C0A38DB48D9C9181A9892B8C93E4
:1017200008950895FC016370668B848195812681FC
:101730003781613039F0633029F0918780873387B2
:1017400022870895318720879387828708952F9273
:101750003F924F925F926F927F928F929F92AF9241
:10176000BF92CF92DF92EF92FF920F931F93CF938E
:10177000DF93CDB7DEB76A970FB6F894DEBF0FBE22
:10178000CDBF9A8F898F7A8369834A01D22E1887B9
:101790000F833701BC2CDC0159962D913C915A974F
:1017A0002115310509F015C118968D919C91199755
:1017B000681779070CF0D7C11A968D919C9148173C
:1017C00059070CF0D0C14C2C512CB6E0CB9E600DCB
:1017D000711D11247C876B87161617060CF0C3C188
:1017E000EA2DF0E0FA87E98793E0EE0FFF1F9A9564
:1017F000E1F7F88BEF87CF01840F951F18161906B4
:101800000CF0B1C1A98DBA8D58968C91811104C08C
:10181000BFEABD1508F4D394A98DBA8DED91FC9162
:1018200011970284F385E02DCD010995B5E0DB9E8B
:10183000C0011124E981FA81FC83EB83312C212C36
:101840009C0129523F4F388F2F8B4A2D50E05E8BE1
:101850004D8BEF89F88DE20DF31D44919E828D82B0
:10186000D12CC12C69817A81620D731D7A8B698BB1
:10187000842F90E09C8B8B8BE98DFA8DA081B181B8
:1018800040FF82C0F1E0BF126FC0AF126DC01C9666
:10189000ED91FC912F813885A4014C0D5D1D698966
:1018A0007A89898D9A8D0995EB89FC89F595E7955B
:1018B0004E2F5FEFC51AD50A6D817E818D899E8975
:1018C000680F791F7E836D8398E0C916D10481F675
:1018D000AFEF2A1A3A0AEB81FC81E40DF51DFC8377
:1018E000EB83F5E02F16310409F0B3CF2F81388553
:1018F00026153705B9F0A98DBA8DED91FC91B1E0AF
:10190000BB1257C0AB1255C069817A816B5F7F4FA4
:101910000088F189E02D830128E030E0A401898D61
:101920009A8D0995A98DBA8DED91FC911197068834
:10193000F789E02DCD016A960FB6F894DEBF0FBE91
:10194000CDBFDF91CF911F910F91FF90EF90DF906E
:10195000CF90BF90AF909F908F907F906F905F904F
:101960004F903F902F9009941E96ED91FC91EF803F
:10197000F88409851A8592014D815E816B817C8195
:10198000898D9A8D099590CF2F8138852615370539
:1019900009F48ACF31E0B31207C0A31205C01C9628
:1019A000ED91FC91930178CF1E96ED91FC9173011E
:1019B000E0CF6B857C85641975090684F785E02D79
:1019C00073010F8518899201A401898D9A8D09955B
:1019D000A9CFF90134969491329745915491D91A2F
:1019E000B7E0DB9E400D511D1124F9012591349182
:1019F0003C8B2B8BFA0125903490FA01329674902F
:101A000031963491398B329664903196449041E00E
:101A10004C1518F04A1508F07FC0662D062C000CF6
:101A2000770B7C836B83842D042C000C990B9E8395
:101A30008D83A98DBA8DED91FC9111970284F38568
:101A4000E02DCD010995512CD12CC12CEA2DF0E0CF
:101A5000FA87E9872B2D30E03C872B87A401440DC2
:101A6000511D47FC5A95588F4F8B69817A81660DBD
:101A7000711D67FC7A957E876D877989C71608F096
:101A800051CF2C2D30E04D815E81420F531FA9852F
:101A9000BA854A9FC0014B9F900D5A9F900D11240B
:101AA000FC01E80DF91DF88BEF87852D612C4F891E
:101AB000588D420F531F5E8B4D8B671408F050C03A
:101AC00044244394480E877041F4C1010196EB8988
:101AD000FC89E20DF31DD4901C01D7FE19C0A98D1D
:101AE000BA8DED91FC91662D70E0B1E0BB1219C08A
:101AF000AB1217C02D853E85620F731F0484F585D8
:101B0000E02D2F8138854D895E89898D9A8D0995C3
:101B1000DD0C6394842DD1CF1E821D821C821B821A
:101B200088CF4B815C81640F751FAB85BC856A9F34
:101B3000C0016B9F900D7A9F900D112469817A816D
:101B4000680F791F0684F785E02DEF80F8840985FA
:101B50001A859D014F855889898D9A8D0995D8CF11
:101B6000570CC3948ACF6A960FB6F894DEBF0FBEA7
:101B7000CDBFDF91CF911F910F91FF90EF90DF903C
:101B8000CF90BF90AF909F908F907F906F905F901D
:101B90004F903F902F9008958F929F92AF92CF9247
:101BA000EF92FF920F931F93CF93DF93EC01262FB9
:101BB000898D9A8D009709F051C06A30D1F41D8645
:101BC0001C868D8948E0849F900111248E859F8515
:101BD000820F931F9F878E8781E090E0DF91CF91E6
:101BE0001F910F91FF90EF90CF90AF909F908F90AB
:101BF00008956D3089F3CC88AD888F898823C1F032
:101C00008C859D8536E0C39E800D911D11244885ED
:101C100059854817590764F44E855F851D861C86D3
:101C200038E0A39EC0011124840F951F9F878E87E3
:101C3000EA88FB88088919894E855F856C857D85D2
:101C4000CE010E94A70B2C898C859D8546E0249FA0
:101C5000800D911D11249D878C87BECF6A3069F459
:101C60001D861C86FC013896E4912D898E859F8502
:101C7000E29F800D911D1124ADCF6D3009F4ACCFE2
:101C8000FC0134963491631708F4A6CF3296E491A0
:101C9000E61708F4A1CFFC01329685909490462F68
:101CA000431B342F47E0349F800C911C1124F40116
:101CB000329634913196E4913323A9F1EE2399F1D0
:101CC000CC88F4013596E491AD884F89442301F125
:101CD0000E2E000CFF0BE30FF11DCE9EA001CF9E38
:101CE000500D11246C857D85460F571F68857985B9
:101CF000641775076CF44E855F851D861C86FC0194
:101D00003896E491AE9E400D511D11245F874E8799
:101D1000EA88FB88088919894E855F856C857D85F1
:101D2000CE010E94A70BF4013496E4912C898C8596
:101D30009D85E29F800D911D11248DCF6F927F9222
:101D40008F929F92AF92BF92CF92DF92EF92FF92CB
:101D50000F931F93CF93DF93EC016B015A0139016D
:101D60004801E881F9810284F385E02D0995E88135
:101D7000F9810288F389E02D87019301A501B6015D
:101D8000CE010995A501480D591D41505109E88121
:101D9000F9810288F389E02D9301B601CE010995FE
:101DA000E881F9810088F189E02D9401A501B6014F
:101DB000CE010995C60CD71CB60161507109E881A6
:101DC000F9810088F189E02D9401A501CE010995E2
:101DD000E881F9810688F789E02DCE01DF91CF9166
:101DE0001F910F91FF90EF90DF90CF90BF90AF9039
:101DF0009F908F907F906F9009946F927F928F92B7
:101E00009F92AF92BF92CF92DF92EF92FF920F9389
:101E10001F93CF93DF935C01EB016A014901380105
:101E20008701DC01ED91FC916217730719F56416C7
:101E300075062CF0962D872D3A01C92ED82E9601C5
:101E4000261937092F5F3F4F048CF58DE02DA30134
:101E5000BE01C5010995DF91CF911F910F91FF90B0
:101E6000EF90DF90CF90BF90AF909F908F907F903A
:101E70006F9008954615570591F42617370724F0FB
:101E8000892D4B01C22FD82F9E01281939092F5FA8
:101E90003F4F068CF78DE02DA601B401DACF028406
:101EA000F385E02D0995D501ED91FC910488F58924
:101EB000E02D83019401A601BE01C5010995D5015C
:101EC000ED91FC910688F789E02DC501DF91CF9156
:101ED0001F910F91FF90EF90DF90CF90BF90AF9048
:101EE0009F908F907F906F900994EF92FF920F9345
:101EF0001F93DC011A960D911C911B9718962D913A
:101F00003C911997ED91FC9100A0F1A1E02D7B018E
:101F100050E040E070E060E009951F910F91FF9064
:101F2000EF9008954F925F926F927F928F929F925F
:101F3000AF92BF92CF92DF92EF92FF920F931F93D7
:101F4000CF93DF936C012B015A0139014801DC0169
:101F5000ED91FC910284F385E02D0995E201640C7A
:101F6000751CD601ED91FC91C615D7055CF400886F
:101F7000F189E02D87019401A501BE01C6010995F3
:101F80002196EFCF0688F789E02DC601DF91CF912A
:101F90001F910F91FF90EF90DF90CF90BF90AF9087
:101FA0009F908F907F906F905F904F9009948F9249
:101FB0009F92AF92BF92CF92DF92EF92FF920F93D8
:101FC0001F93CF93DF93EC015B014A016901E88124
:101FD000F9810284F385E02D099595012C0D3D1DB5
:101FE00021503109E881F9810488F589E02D7801D3
:101FF0008401A401B501CE010995E881F981068823
:10200000F789E02DCE01DF91CF911F910F91FF90C5
:10201000EF90DF90CF90BF90AF909F908F900994FA
:102020008F929F92AF92BF92CF92DF92EF92FF92E8
:102030000F931F93CF93DF93EC015B014A0169017A
:102040007801E881F9810284F385E02D0995C80CB7
:10205000D91C860101501109E881F9810488F589AC
:10206000E02D9501A401B501CE010995E881F98122
:102070000688F789E02DCE01DF91CF911F910F9156
:10208000FF90EF90DF90CF90BF90AF909F908F9098
:102090000994EF92FF920F931F93DC01ED91FC9155
:1020A00000A0F1A1E02D09951F910F91FF90EF90F5
:1020B00008950F931F93DC01ED91FC91068CF78D31
:1020C000E02D09951F910F9108950F931F93DC0147
:1020D000ED91FC91048CF58DE02D09951F910F91E8
:1020E0000895DC01ED91FC910084F185E02D0994C7
:1020F0002F923F924F925F926F927F928F929F9218
:10210000AF92BF92CF92DF92EF92FF920F931F9305
:10211000CF93DF9300D000D000D0CDB7DEB73C0125
:102120006A013E832D83FC82EB825801A41AB50A12
:10213000B7FE03C0B194A194B1088D809E80861A29
:10214000970A97FE03C09194819491088A149B0486
:102150005CF0902F812F0D811E819D838E839C2D9D
:102160008D2D6B01692F782F0C151D055CF09D815D
:102170008E817E836D83692F782F902F812F86012A
:10218000C92ED82E1601201A310A2B012D813E812D
:10219000421A530A57FE03C05194419451087101E9
:1021A00037FE03C03FEFE31AF30AF594E7948D81FD
:1021B0009E81861797075CF5A1E0B0E0BA83A983FA
:1021C000C016D1064CF1D301ED91FC910484F58544
:1021D000E02D2B813C81A8016D817E818A149B04B6
:1021E0001CF04D815E81B801C3010995E418F50822
:1021F000F7FE0AC02D813E8189819A81280F391FFF
:102200003E832D83E20CF31C0F5F1F4FD9CF2FEFBE
:102210003FEF3A832983D4CF26960FB6F894DEBFDA
:102220000FBECDBFDF91CF911F910F91FF90EF9027
:10223000DF90CF90BF90AF909F908F907F906F90E6
:102240005F904F903F902F900895AF92BF92CF92A2
:10225000DF92EF92FF920F931F93CF93DF93EC01E6
:102260005B016A01215031097901E60EF71E015028
:102270001109040F151F809106019091070186171F
:10228000970739F480910401909105018E159F05FF
:10229000A1F06AE2CE010E944207B501CE010E9480
:1022A000D006B701CE010E94D006B0920701A092DD
:1022B0000601F0920501E0920401809102019091E3
:1022C00003018C159D0539F4809100019091010165
:1022D00080179107A1F06BE2CE010E944207B60180
:1022E000CE010E94D006B801CE010E94D006D09245
:1022F0000301C092020110930101009300016CE2FE
:10230000CE01DF91CF911F910F91FF90EF90DF9061
:10231000CF90BF90AF900C944207611106C060E26D
:1023200020E050E040E00C94270B61E2F9CF0F93DE
:102330001F93CF93DF931F92CDB7DEB78C016370ED
:10234000DC0156966C935697623009F468C063308E
:1023500009F46AC0613009F456C088E4898380EFCB
:1023600090E019969C938E93189780E491E01B96C9
:102370009C938E931A97C8010E945707D801D7964D
:102380008C91D79787FD09C05B96ED91FC915C9786
:102390008081D2969C9189238083D8015D96ED91AE
:1023A000FC915E978081D4969C918923808366E31B
:1023B000C8010E941507D8015D96ED91FC915E97CA
:1023C0008081D3969C91D397892B8083D5968C91CD
:1023D000823061F16981C8010E941507D801D79642
:1023E0008C91D79787FD09C05B96ED91FC915C9726
:1023F0008081D1969C91892B80830F90DF91CF9122
:102400001F910F91089588E2898380E491E0F8019B
:102410009187808780EF90E093878287ACCF88E8B0
:10242000898380EF90E09DCF88EEEECFF80180A900
:10243000882381F269817A81C8010E94D006CECFBB
:10244000089590E080E008950E943622FB010190FB
:102450000020E9F73197AF01461B570BDC01ED91E6
:10246000FC910280F381E02D09948F929F92AF92AC
:10247000BF920F931F93CF93DF93CDB7DEB7A19792
:102480000FB6F894DEBF0FBECDBF19A2423008F4DC
:102490004AE08E010F5D1F4F842E912CB12CA12C90
:1024A000A50194010E944221E62FB901CA01EA3038
:1024B00004F5E05DD801EE938D01232B242B252B11
:1024C00079F790E080E0109729F0BD018EE793E066
:1024D0000E942612A1960FB6F894DEBF0FBECDBFA4
:1024E000DF91CF911F910F91BF90AF909F908F90F0
:1024F0000895E95CDFCFCF92DF92EF92FF92CF9306
:10250000DF936C01990FEE08FF08F7FE19C06DE22A
:102510008EE793E00E94CC0DEC0166277727CB0174
:102520006C197D098E099F094AE00E9435128C0FB3
:102530009D1FDF91CF91FF90EF90DF90CF90089596
:102540004AE0C701B601DF91CF91FF90EF90DF9095
:10255000CF900C943512CF93DF93BC018EE793E0BC
:102560000E942612EC0163E671E08EE793E00E9480
:1025700026128C0F9D1FDF91CF910895FC01808161
:102580009181009711F00C946D1E08950F931F9385
:10259000CF93DF93EC0188819981009759F02A81CC
:1025A0003B812617370730F081E0DF91CF911F91F3
:1025B0000F9108958B016F5F7F4F0E9479210097E3
:1025C00059F0998388831B830A832C813D81232BB7
:1025D00059F7FC011082E8CF80E0E7CFEF92FF923D
:1025E0000F931F93CF93DF93EC017B018A01BA0114
:1025F0000E94C61228813981811114C0211531052C
:1026000019F0C9010E946D1E198218821D821C8258
:102610001B821A82CE01DF91CF911F910F91FF9003
:10262000EF9008951D830C83B701C9010E944422D5
:10263000F1CFFB0101900020E9F73197AF01461B74
:10264000570B0C94EE12FB01DC0111961C921E92AA
:1026500013961C921E92129715961C921E92149716
:102660008617970749F0608171816115710521F026
:10267000448155810C94EE1208951F93CF93DF93FC
:1026800085ED8093BC008091EE019091EF01A091C7
:10269000F001B091F1010796A11DB11D23E0B6959F
:1026A000A795979587952A95D1F72091BC0024FD91
:1026B00003C01092360252C04091EE015091EF01DA
:1026C0006091F0017091F101452B462B472B69F386
:1026D0000097A105B10541F02AE22A95F1F700C063
:1026E0000197A109B109E1CF8091ED01C1E0C0934B
:1026F000EC01882399F1D091B8001091BA00809133
:10270000BC008A7B8093BC0060E082E10E94B70439
:1027100060E083E10E94B70410923602C093380251
:102720001092370261E082E10E94B70461E083E128
:102730000E94B7048091B9008E7F8093B900809188
:10274000B9008D7F8093B90088E48093B80085E458
:102750008093BC001093BA00D093B800DF91CF9162
:102760001F910895CF92DF92EF92FF920F931F93E4
:10277000CF93DF93EC016A017B01C114D104E10422
:10278000F10431F4C12C42E1D42E4AE7E42EF12CBD
:102790008FA987FD07C061E00E94E50461E08FA971
:1027A0000E94B70461E088AD0E94E50461E088AD55
:1027B0000E94B7048DA98111A3C040E052E16AE7ED
:1027C00070E0C416D506E606F70640F476956795E0
:1027D000579547958F5F8630A1F787E0982F906ACD
:1027E000969599A3809581708AA31BA21CA21DA215
:1027F0001EA21FB7F8948091EA01811127C0E8E278
:10280000F6E08491EAE0F6E09491E82FF0E0EE0F34
:10281000FF1FE852FA4FA591B491EC91E92321F4FE
:1028200061E08AE00E94B70461E08AE00E94E5046A
:102830008CB580618CBD8CB580648CBD61E08DE011
:102840000E94E50461E08BE00E94E5048091EA01CA
:102850008F5F8093EA011FBF8EA987FD21C061E0D1
:102860000E94E50461E08EA90E94B70464E670E06E
:1028700080E090E00E943B0560E08EA90E94B704D2
:1028800064E670E080E090E00E943B0561E08EA984
:102890000E94B70468EC70E080E090E00E943B0585
:1028A0008EA987FF0DC020E050E040E061E0CE013E
:1028B0000E94270B66E970E080E090E00E943B05F3
:1028C00008E610E0C8010196F8016491662309F456
:1028D00063C00E5F1F4FFC01F490EF2CE894E7F803
:1028E0002E2DA801CE010E94270B0E0D111DF7FE03
:1028F000E9CF66E970E080E090E00E943B05E2CF1E
:102900000EE116E0F12C8130B9F461E08AA50E9455
:10291000E50460E08AA50E94B70461E08CA50E94EE
:10292000E50460E08CA50E94B7048BA587FD94CFD9
:1029300060E00E94E50490CFF8018491E82FF0E078
:10294000EE0FFF1FEC5EF94F859194912F8D38A10A
:102950002817390741F461E08F2D0E94E50460E0FB
:102960008F2D0E94B704F3940F5F1F4FF4E1FF1205
:10297000E3CF61E08EA50E94E50461E08EA50E9490
:10298000B7048FA587FD68CF61E00E94E50461E090
:102990008FA50E94B70460CF80EF90E09987888769
:1029A00080E491E09B878A87DF91CF911F910F91FF
:1029B000FF90EF90DF90CF900895AF92BF92CF92AB
:1029C000DF92EF92FF920F931F93CF93DF9300D08C
:1029D00000D000D0CDB7DEB77C016B01FC01A48034
:1029E000B580A114B10409F472C000811181FB010A
:1029F00060817181C8010E944B22009709F467C071
:102A00009C01201B310B8901F60164817581060F41
:102A1000171FA016B10628F4902F812F8501A92E2B
:102A2000B82E1A8219821C821B821E821D8265E6C4
:102A300071E0CE0101960E941913F701C480D58080
:102A40000C151D0520F5AC14BD0408F46501F70153
:102A500060817181FB01EC0DFD1DB0801082600F63
:102A6000711F61157105B1F1FB0101900020E9F7BB
:102A70003197AF01461B570BCE0101960E94EE1213
:102A8000F70180819181C80ED91EF601B08289813B
:102A90009A81C12CD12C7601009719F00E94F61E64
:102AA0006B01CE0101960E94BE12C60126960FB69A
:102AB000F894DEBF0FBECDBFDF91CF911F910F9174
:102AC000FF90EF90DF90CF90BF90AF9008950FEF01
:102AD0001FEF9ACF89819A81009711F00E946D1E95
:102AE0001A8219821E821D821C821B82C9CF1F92EC
:102AF0000F920FB60F9211242F933F938F939F93B2
:102B0000AF93BF938091BE029091BF02A091C0028B
:102B1000B091C1023091B90223E0230F2D3758F54F
:102B20000196A11DB11D2093B9028093BE0290931E
:102B3000BF02A093C002B093C1028091BA029091EB
:102B4000BB02A091BC02B091BD020196A11DB11DB6
:102B50008093BA029093BB02A093BC02B093BD02D3
:102B6000BF91AF919F918F913F912F910F900FBE89
:102B70000F901F90189526E8230F0296A11DB11DF6
:102B8000D2CF1F920F920FB60F9211242F933F9323
:102B90004F935F936F937F938F939F93AF93BF9365
:102BA000EF93FF938091A5029091A602A091A702B6
:102BB000B091A802892B8A2B8B2BD1F19091A00286
:102BC000E091A102F091A202808189278083809107
:102BD000A5029091A602A091A702B091A802181692
:102BE00019061A061B069CF48091A5029091A60274
:102BF000A091A702B091A8020197A109B109809301
:102C0000A5029093A602A093A702B093A802FF91F9
:102C1000EF91BF91AF919F918F917F916F915F9154
:102C20004F913F912F910F900FBE0F901F901895CD
:102C3000809108010E946D05EACF1F920F920FB696
:102C40000F9211242F933F934F935F936F937F9332
:102C50008F939F93AF93BF93EF93FF9382EC92E098
:102C60000E94C203FF91EF91BF91AF919F918F910D
:102C70007F916F915F914F913F912F910F900FBE78
:102C80000F901F9018951F920F920FB60F9211245C
:102C90002F938F939F93EF93FF93E091D202F09144
:102CA000D3028081E091D802F091D90282FD1BC04D
:102CB00090818091DB028F5F8F732091DC028217FD
:102CC00041F0E091DB02F0E0EE53FD4F958F8093F1
:102CD000DB02FF91EF919F918F912F910F900FBE8B
:102CE0000F901F9018958081F4CF1F920F920FB60E
:102CF0000F9211242F933F934F935F936F937F9382
:102D00008F939F93AF93BF93EF93FF93E0919E02B6
:102D1000F0919F02309749F0A685B7858585968DFD
:102D200091FF14C09C918923A1F4FF91EF91BF9171
:102D3000AF919F918F917F916F915F914F913F9153
:102D40002F910F900FBE0F901F9018959C91892383
:102D500061F7A389B4899C918589809589238C9397
:102D6000868997890197F1F7608D718DA685B78562
:102D7000558538E020E0CB010197F1F7822F90E0F4
:102D800095958795282F4C91452309F0206831505F
:102D900091F7868D81FD209580919D0290E00196AE
:102DA0008F73992730919C02381799F0A0919D025A
:102DB000B0E0A45ABD4F2C9380939D02828D938DD9
:102DC0000197F1F7A389B4898C919589892B8C930C
:102DD000ACCF868D8160868FF1CF1F920F920FB698
:102DE0000F9211242F933F934F935F936F937F9391
:102DF0008F939F93AF93BF93EF93FF938091B9000D
:102E0000887F803609F44AC0F0F5883209F4A5C0FD
:102E100018F5803109F499C0B8F4882309F4F5C095
:102E2000883009F492C0FF91EF91BF91AF919F91CB
:102E30008F917F916F915F914F913F912F910F9063
:102E40000FBE0F901F901895883109F486C080320C
:102E500051F78093350214C0803409F49BC040F4CC
:102E60008033B9F38833F9F68093350285ECAEC030
:102E7000803509F483C0883509F494C0883499F604
:102E80000E943D13D0CF883909F48AC038F58837BD
:102E900029F050F4883611F0803729F683E08093CA
:102EA00036021092340255C0883809F479C080394E
:102EB00019F0803809F0B7CF80913402803208F0E1
:102EC0006FC0E091340281E08E0F809334028091D4
:102ED000BB00F0E0EC5EFD4F80833BC0803B39F0EF
:102EE000D0F4803A09F477C0883A09F09CCF84E0A6
:102EF000809336021092130210921202F0E0E0E08A
:102F000009958091120281110FC081E08093120215
:102F10001092F20109C0803C09F4A8CF883C09F462
:102F2000A5CF883B09F07FCFE091130281E08E0F9F
:102F300080931302F0E0EE50FE4F80818093BB003F
:102F4000909113028091120229C080915B028093BC
:102F5000BB0085EC8093BC0066CF90915A028091B3
:102F60005902981758F5E0915A0281E08E0F80932C
:102F70005A02F0E0E75CFD4F8081E9CFE0915A0210
:102F800081E08E0F80935A028091BB00F0E0E75CF5
:102F9000FD4F808390915A02809159029817C8F290
:102FA00085E8D8CFE0915A0281E08E0F80935A02D3
:102FB0008091BB00F0E0E75CFD4F80838091380298
:102FC00081115ECF81E08093370284EA8093BC0058
:102FD0001092360228CF85EC8093BC001092360206
:102FE00080913402803230F4E0913402F0E0EC5E03
:102FF000FD4F10826091340270E084E192E0F0E0D5
:10300000E0E00995109234020ECF1092350238CFCD
:10301000CF93DF931092C5021092C40248EE53E0A2
:1030200060E070E04093C6025093C7026093C8020C
:103030007093C90283E191E09093C3028093C2022E
:1030400085EC90E09093CF028093CE0284EC90E0E8
:103050009093D1028093D00280EC90E09093D302C1
:103060008093D20281EC90E09093D5028093D402B9
:1030700082EC90E09093D7028093D60286EC90E0A9
:103080009093D9028093D8021092DB021092DC0256
:103090001092DD021092DE021092810310928003E2
:1030A00020EF30E0309383032093820380E491E0AB
:1030B0009093850380938403309387032093860342
:1030C00090938903809388031092940310928B034A
:1030D00010928A0310928D0310928C0331E030938A
:1030E0009303309392038FEF9FEF9093910380931C
:1030F000900390938F0380938E03309395031092E7
:10310000960310929803109297033093B3038AE0CA
:103110008093B40388E08093B50389E08093B6037D
:103120001092B8031092B7031092BA031092B90329
:103130001092BB031092BC031092BD031092BE0309
:103140001092BF031092C0038DE08093AA038BE01E
:103150008093A8038CE08093A903E7E2F6E0E49172
:10316000F0E0EE0FFF1FEC5EF94F85919491909384
:103170009C0380939B03E9E0F6E024912093B10344
:10318000EBE2F6E0E491F0E0EE0FFF1FEC5EF94FAA
:10319000859194919093A2038093A103EDE0F6E0D2
:1031A00094919093A503E9E2F6E0E491F0E0EE0F4C
:1031B000FF1FEC5EF94FA591B491B093A003A093CB
:1031C0009F03EBE0F6E084918093A303E6E2F6E050
:1031D000E491F0E0EE0FFF1FEC5EF94FA591B49182
:1031E000B0939A03A0939903E8E0F6E0A491A0932A
:1031F000AF03EAE2F6E0E491F0E0EE0FFF1FEA50E1
:10320000FA4FC591D491D0939E03C0939D03ECE0F7
:10321000F6E0E491E093A703EA2FE095E093B00392
:1032200020952093B20390959093A6038095809368
:10323000A40387E391E090937F0380937E03109231
:10324000620310926103409363035093640360939D
:1032500065037093660385E291E090936003809329
:103260005F03109276031092750310927803109208
:10327000770310927A031092790310927C031092D4
:103280007B0360917D036E7F6D7F60937D03669508
:103290006170632781E00E94B70461E081E00E94D1
:1032A000E504E1E0F6E0E491E0936F03EFE1F6E09E
:1032B000E491F0E0EE0FFF1FEC5EF94F85919491E1
:1032C000909371038093700360E080E00E94E504B6
:1032D00080917D0381FD04C061E080E00E94B7041D
:1032E00010926B03E0E0F6E0E491E0936C03EEE112
:1032F000F6E0E491F0E0EE0FFF1FEA50FA4F8591FF
:10330000949190936E0380936D03DF91CF91089514
:10331000CF93DF93CDB7DEB762970FB6F894DEBFD9
:103320000FBECDBF789484B5826084BD84B58160C2
:1033300084BD85B5826085BD85B5816085BD809180
:103340006E00816080936E001092810080918100F8
:1033500082608093810080918100816080938100F0
:10336000809180008160809380008091B1008460B2
:103370008093B1008091B00081608093B000809113
:103380007A00846080937A0080917A0082608093D2
:103390007A0080917A00816080937A0080917A002F
:1033A000806880937A001092C10010927A03109284
:1033B000790310927803109277031092760310929B
:1033C00075038DE991E090937C0380937B0390914A
:1033D0006B03963108F047C02DEB30E03093760355
:1033E000209375032BE931E0309378032093770322
:1033F0002CE231E030937A03209379032091680026
:1034000084E0983048F031E09E3008F430E081E00C
:1034100001C0880F3A95EAF7822B809368002DE669
:1034200030E0983050F02BE630E09E3030F02CE663
:1034300030E0963110F030E020E0309373032093B9
:103440007203292F30E0983008F0A4C081E001C059
:10345000880F9A95EAF78093740380917B0390918B
:103460007C030197F1F78091790390917A03892B7E
:1034700049F1E0919E02F0919F0283E0EF35F80759
:1034800009F1309739F0A389B4899C918589809599
:1034900089238C9380917D038E7F80937D0310928E
:1034A0009D0210929C028FE593E090939F0280937F
:1034B0009E02E0917203F0917303808190917403F6
:1034C000892B808360E087E00E94E50461E086E06C
:1034D0000E94E50460E084E00E94E50460E083E08F
:1034E0000E94E50461E085E00E94E50460E082E07E
:1034F0000E94E50440E050E0BA018EE793E00E94AC
:10350000B21361E08EE793E00E94971188248A94B9
:10351000982C540102E030E4632E712C83E00E9469
:103520008E04892BD9F38FE593E00E943B06892B0B
:1035300009F4C9C01E861D86188A1F861A8A198A30
:1035400065E671E0CE010D960E9419130E94680392
:1035500049895A8997FD2BC08A30910541F18983A9
:103560001A827A019FEFE91AF90AB701CE010D9686
:103570000E94C612882351F32D853E8589899A8938
:10358000BE016F5F7F4F820F931F0E944422FA8A11
:10359000E98ADCCF9E3040F42850310981E001C037
:1035A000880F2A95EAF757CF2E503109F7CF6D854E
:1035B0007E8582EC92E00E94990563E671E082ECE0
:1035C00092E00E9426121A8219821C821B821E829D
:1035D0001D8266E671E0CE0101960E941913BE01BC
:1035E000635F7F4FCE0107960E942313BE016F5F7A
:1035F0007F4FCE0107960E94DD149093B80280930E
:10360000B702CE0107960E94BE12CE0101960E941B
:10361000BE121A8219821C821B821E821D8260E7E2
:1036200071E0CE0101960E941913BE01635F7F4FC6
:10363000CE0107960E942313BE016F5F7F4FCE011C
:1036400007960E94DD149093B6028093B502CE01D6
:1036500007960E94BE12CE0101960E94BE121A82E7
:1036600019821C821B821E821D8267E771E0CE01D7
:1036700001960E941913BE01635F7F4FCE0107962A
:103680000E942313BE016F5F7F4FCE0107960E94F9
:10369000DD14BC01990F880B990B0E94391F6093B0
:1036A000B1027093B2028093B3029093B402CE0140
:1036B00007960E94BE12CE0101960E94BE12CE0154
:1036C0000D960E94BE1240E050E0BA018EE793E0F2
:1036D0000E94B21361E08EE793E00E94971100937D
:1036E00092030093930387E00E948E04019709F0F0
:1036F0003DC080E891E00E94AB1282E00E948E04FF
:103700000197B9F58EE991E00E94AB1284E00E9426
:103710008E04019709F0F7C080910801863061F5A9
:10372000E7EDF5E0149117FDCBC061E086E00E9463
:10373000E504112309F495C0123009F0A6C0809168
:10374000B100887F83608093B10089EF8093B300DC
:103750008092A5029092A602A092A702B092A8021F
:1037600080917000826080937000AAC08EE891E022
:10377000C2CF8CEA91E0C8CF8F3F09F0A1C086E0AC
:1037800080930801E7EDF5E014911F3F09F498C01C
:10379000113029F150F0123009F440C017FD90C0EB
:1037A00061E086E00E94E504C7CF14BC15BC84B577
:1037B000826084BD85B5816085BDE4E2F6E08491D8
:1037C000E82FF0E0EE0FFF1FEC5EF94F859194912A
:1037D000E6E0F6E084918093A40210E0A6CF109278
:1037E0008000109281008091810088608093810028
:1037F00080918100816080938100E4E2F6E0849111
:10380000E82FF0E0EE0FFF1FEC5EF94F85919491E9
:10381000E6E0F6E084918093A30287CF1092B00097
:103820001092B1008091B00082608093B0008091CE
:10383000B10081608093B100E4E2F6E08491E82F6A
:10384000F0E0EE0FFF1FEC5EF94F8591949190939D
:10385000A2028093A102E6E0F6E084918093A002A8
:1038600064CF85B5887F836085BD8CE787BD8092F6
:10387000AD029092AE02A092AF02B092B0028091DF
:103880006E00826080936E001BC01130A1F58091A4
:103890008100887F8160809381008FE39FE1909316
:1038A0008900809388008092A9029092AA02A09237
:1038B000AB02B092AC0280916F00826080936F0087
:1038C00082E00E948E0461E0019709F0D3C085E098
:1038D0000E94E504E7EEF5E08491833009F4AEC080
:1038E000B0F4813031F1823009F4A2C060E085E0AB
:1038F0000E94B70423C0123021F01111E1CF8FE3F1
:10390000B5CF8FE323CF86E00E946D05D9CF8730F6
:1039100009F49EC0883009F4A4C0843039F780913E
:10392000800080628093800070928B0060928A0099
:1039300005C084B5806884BD80E487BD6BEB71E011
:103940008EE793E00E9426128091B7029091B80210
:103950000E947B1264E671E08EE793E00E942612DB
:1039600066EC71E08EE793E00E9426128091B5022A
:103970009091B6020E947B126EEC71E08EE793E0AC
:103980000E94261264E671E08EE793E00E94261200
:1039900063ED71E08EE793E00E942612C090B102C1
:1039A000D090B202E090B302F090B402A701960169
:1039B000C701B6010E943D216DED71E081111BC070
:1039C00016012701E89457F82FEF3FEF4FE75FE725
:1039D000C201B1010E943D21811150C02FEF3FEF84
:1039E0004FE75FE7C201B1010E94321F18160CF0C9
:1039F00045C061EE71E08EE793E00E94261264E616
:103A000071E08EE793E00E94261268E873E180E09F
:103A100090E00E943B0580E090E0892B09F47ECD88
:103A20000E945104882309F475CD0E94000072CDD4
:103A300084B5806284BD80E488BD80CF80918000A1
:103A4000806880938000709289006092880076CFB1
:103A50008091B00080688093B00080E48093B300D0
:103A60006DCF8091B00080628093B00080E480933D
:103A7000B40064CF85E00E94E50438CF2FEF3FEF1C
:103A80004FE75FE4C701B6010E94382118161CF405
:103A900065EE71E0B0CF2FEF3FEF4FE75FECC7016E
:103AA000B6010E94321F87FDF3CF20E030E0A9016C
:103AB000C701B6010E94321F87FF09C06DE28EE781
:103AC00093E00E94CC0DF7FAF094F7F8F0942AE016
:103AD00037ED43EA5BE3C701B6010E949D201B015D
:103AE0002C010E9409216B017C010E94371F9B0160
:103AF000AC01C201B1010E949C201B012C014AE0D3
:103B0000C701B6010E9435126EE28EE793E00E9473
:103B1000CC0D20E030E040E251E4C201B1010E944E
:103B2000981F1B012C010E9409216B01F12CE12C33
:103B30004AE0C701B6010E943512C701B6010E94D2
:103B4000371F9B01AC01C201B1010E949C2020E003
:103B500030E040E251E40E94981F0E94092190E069
:103B600080E04AE00E9435124ACF85E291E09093CE
:103B7000600380935F0380919E0290919F028F5516
:103B8000934071F4E0917203F091730390818091FE
:103B9000740380958923808310929F0210929E0265
:103BA00008950F931F93CF93DF938230910510F404
:103BB00082E090E0E091C303F091C40330E020E0A4
:103BC000B0E0A0E0309799F42115310509F44AC01E
:103BD000281B390B24303105D8F58A819B8161156A
:103BE000710589F1FB0193838283FE0111C040813D
:103BF00051810281138148175907E0F0481759078E
:103C000099F4109761F012960C93129713961C93E7
:103C10003296CF01DF91CF911F910F9108950093BC
:103C2000C3031093C403F4CF2115310551F042179B
:103C3000530738F0A901DB019A01BD01DF01F8014A
:103C4000C1CFEF01F9CF9093C4038093C303CDCFCD
:103C5000FE01E20FF31F81939193225031093983C2
:103C60002883D7CF2091C1033091C203232B41F485
:103C700020910B0130910C013093C2032093C103BA
:103C80002091090130910A012115310541F42DB728
:103C90003EB740910D0150910E01241B350BE09170
:103CA000C103F091C203E217F307A0F42E1B3F0BF0
:103CB0002817390778F0AC014E5F5F4F241735079E
:103CC00048F04E0F5F1F5093C2034093C10381938E
:103CD00091939FCFF0E0E0E09CCFCF93DF930097EC
:103CE000E9F0FC01329713821282A091C303B091D4
:103CF000C403ED0130E020E01097A1F42081318170
:103D0000820F931F2091C1033091C20328173907F6
:103D100009F061C0F093C203E093C103DF91CF913A
:103D20000895EA01CE17DF07E8F54A815B819E011D
:103D300041155105B1F7E901FB83EA834991599196
:103D4000C40FD51FEC17FD0761F4808191810296A5
:103D5000840F951FE90199838883828193819B83D6
:103D60008A83F0E0E0E012968D919C911397009782
:103D7000B9F52D913C911197CD010296820F931FB9
:103D80002091C1033091C2032817390739F63097C3
:103D900051F51092C4031092C303B093C203A093D1
:103DA000C103BCCFD383C28340815181840F951F4F
:103DB000C817D90761F44E5F5F4F88819981480F1A
:103DC000591F518340838A819B819383828321156C
:103DD000310509F0B0CFF093C403E093C3039ECF45
:103DE000FD01DC01C0CF13821282D7CF1F93FC01EB
:103DF00099278827BC01E89411911032E9F3193012
:103E000010F01E30C8F31B3251F01D3249F4689493
:103E100006C00E941D1F610F711D811D911D119112
:103E200010531A30B0F33EF49095809570956195DB
:103E30007F4F8F4F9F4F1F910895592F482F372F36
:103E4000262F660F771F881F991F660F771F881F01
:103E5000991F620F731F841F951F660F771F881F9E
:103E6000991F08950E94741F08F481E00895E89452
:103E700009C097FB3EF490958095709561957F4FB2
:103E80008F4F9F4F9923A9F0F92F96E9BB27939560
:103E9000F695879577956795B795F111F8CFFAF470
:103EA000BB0F11F460FF1BC06F5F7F4F8F4F9F4FA1
:103EB00016C0882311F096E911C0772321F09EE8FF
:103EC000872F762F05C0662371F096E8862F70E065
:103ED00060E02AF09A95660F771F881FDAF7880F3F
:103EE0009695879597F90895990F0008550FAA0B95
:103EF000E0E8FEEF16161706E807F907C0F01216FD
:103F00001306E407F50798F0621B730B840B950BFF
:103F100039F40A2661F0232B242B252B21F4089554
:103F20000A2609F4A140A6958FEF811D811D0895F1
:103F30000E94AB1F0C941C200E940E2038F00E949F
:103F4000152020F0952311F00C9405200C940B20E3
:103F500011240C9450200E942D2070F3959FC1F3E2
:103F6000950F50E0551F629FF001729FBB27F00D27
:103F7000B11D639FAA27F00DB11DAA1F649F66277C
:103F8000B00DA11D661F829F2227B00DA11D621FCB
:103F9000739FB00DA11D621F839FA00D611D221F85
:103FA000749F3327A00D611D231F849F600D211D69
:103FB000822F762F6A2F11249F5750409AF0F1F0EC
:103FC00088234AF0EE0FFF1FBB1F661F771F881F55
:103FD00091505040A9F79E3F510580F00C94052068
:103FE0000C9450205F3FE4F3983ED4F38695779588
:103FF0006795B795F795E7959F5FC1F7FE2B880FFB
:10400000911D9695879597F9089597F99F6780E890
:1040100070E060E008959FEF80EC089500240A941A
:104020001616170618060906089500240A94121693
:104030001306140605060895092E0394000C11F4C6
:10404000882352F0BB0F40F4BF2B11F460FF04C073
:104050006F5F7F4F8F4F9F4F089557FD9058440FCC
:10406000551F59F05F3F71F04795880F97FB991FD7
:1040700061F09F3F79F08795089512161306140694
:10408000551FF2CF4695F1DF08C016161706180621
:10409000991FF1CF86957105610508940895E894FC
:1040A000BB2766277727CB0197F908952F923F9278
:1040B0004F925F926F927F928F929F92AF92BF9238
:1040C000CF92DF92EF92FF920F931F93CF93DF93E4
:1040D000CDB7DEB7CA1BDB0B0FB6F894DEBF0FBE41
:1040E000CDBF09942A88398848885F846E847D848E
:1040F0008C849B84AA84B984C884DF80EE80FD8090
:104100000C811B81AA81B981CE0FD11D0FB6F89405
:10411000DEBF0FBECDBFED010895A29FB001B39FDA
:10412000C001A39F700D811D1124911DB29F700DC0
:10413000811D1124911D08955058BB27AA270E9464
:10414000B4200C941C200E940E2038F00E941520F0
:1041500020F039F49F3F19F426F40C940B200EF450
:10416000E095E7FB0C940520E92F0E942D2058F3E1
:10417000BA17620773078407950720F079F4A6F54C
:104180000C944F200EF4E0950B2EBA2FA02D0B01AE
:10419000B90190010C01CA01A0011124FF27591B8C
:1041A00099F0593F50F4503E68F11A16F040A22F92
:1041B000232F342F4427585FF3CF46953795279503
:1041C000A795F0405395C9F77EF41F16BA0B620B02
:1041D000730B840BBAF09150A1F0FF0FBB1F661F49
:1041E000771F881FC2F70EC0BA0F621F731F841F8C
:1041F00048F4879577956795B795F7959E3F08F0B2
:10420000B0CF9395880F08F09927EE0F9795879573
:1042100008950E94352088F09F5798F0B92F99276C
:10422000B751B0F0E1F0660F771F881F991F1AF0A1
:10423000BA95C9F714C0B13091F00E944F20B1E097
:1042400008950C944F20672F782F8827B85F39F096
:10425000B93FCCF3869577956795B395D9F73EF43A
:1042600090958095709561957F4F8F4F9F4F0895E2
:104270000E94741F08F48FEF08950E94741F880B2A
:10428000990B0895A1E21A2EAA1BBB1BFD010DC0BC
:10429000AA1FBB1FEE1FFF1FA217B307E407F507F6
:1042A00020F0A21BB30BE40BF50B661F771F881FD2
:1042B000991F1A9469F760957095809590959B0168
:1042C000AC01BD01CF0108950E948D20332312F46B
:1042D0008A1B9B0B0C946E210E948D20B7FF0895C2
:1042E000821B930B0895EE0FFF1F0590F491E02DB4
:1042F0000994B0E0A0E0EFE7F1E20C9458208C01C3
:10430000009751F4CB010E94D11D8C01C801CDB79B
:10431000DEB7E0E10C947420FC01E60FF71F9C016E
:1043200022503109E217F30708F49DC0D901CD915D
:10433000DC911197C617D70798F0C530D10530F337
:10434000CE0104978617970708F3C61BD70B229751
:10435000C193D1936D937C93CF010E946D1ED6CFF4
:104360005B01AC1ABD0A4C018C0E9D1EA091C303CB
:10437000B091C403512C412CF12CE12C109731F554
:104380008091C1039091C2038815990509F05CC022
:104390004616570608F058C08091090190910A010D
:1043A000009741F48DB79EB740910D0150910E01D9
:1043B000841B950BE817F90708F055C0F093C2036A
:1043C000E093C103F90171836083A0CF8D919C912B
:1043D000119712966C90129713967C901397A815CC
:1043E000B90559F56C0142E0C40ED11CCA14DB04B6
:1043F00020F1AC014A195B09DA011296159780F099
:104400006282738251834083D9016D937C93E1145E
:10441000F10471F0D7011396FC93EE93129776CFC7
:1044200022968C0F9D1FF90191838083F301EFCFBA
:10443000F093C403E093C30369CF4816590608F408
:104440002C017D01D3019ACFCB010E94D11D7C01AB
:10445000009749F0AE01B8010E943B22C8010E94BA
:104460006D1E870153CF10E000E050CF81E090E057
:10447000F8940C946522FB01DC0102C001900D92BE
:1044800041505040D8F70895FB01DC0101900D9296
:104490000020E1F70895FB0151915523A9F0BF01D8
:1044A000DC014D9145174111E1F759F4CD0101901F
:1044B000002049F04D9140154111C9F3FB01411114
:1044C000EFCF81E090E00197089513E0CAE1D3E0D7
:1044D00004C0FE010E9473212196CB31D107C9F798
:0444E000F894FFCF7E
:1044E400FFFFFFFFFFFFFFFFFF0000C50380000089
:1044F400000000E403990545033104B6035403A8FE
:104504000300000000DF0599052112DE053B06517A
:1045140006C60500000000CC0D9905211220127D6D
:1045240007150BE30A7A0AF9093A0A7810860B97F9
:10453400118D118B08FC086D09750FFD0E9E0EB2CE
:104544001325110D0A0044697374616E63653A00A2
:1045540053706565643A00566F6C746167653A0020
:10456400436172206973204C6F636B65640043611F
:104574007220697320756E6C6F636B6564004C699F
:104584006768747320617265204F4E004C696768D8
:10459400747320617265204F4646004469737461E8
:1045A4006E63653A200053706565643A20006B6D54
:1045B4002F6800566F6C746167653A20006E616EF7
:0A45C40000696E66006F7666000065
:00000001FF
