:100000000C9463000C948B000C948B000C94B8023D
:100010000C94B8020C94B8020C948B000C948B00D6
:100020000C948B000C948B000C948B000C948B0024
:100030000C948B000C948B000C948B000C948B0014
:100040000C946E020C948B000C948B000C948B001F
:100050000C948B000C948B000C948B000C948B00F4
:100060000C948B000C948B000000000023002600F1
:10007000290000000000240027002A0000000000E2
:10008000250028002B0004040404040404040202D4
:100090000202020203030303030301020408102007
:1000A0004080010204081020010204081020000012
:1000B0000008000201000003040700000000000027
:1000C00000008505F00511241FBECFEFD8E0DEBF8C
:1000D000CDBF11E0A0E0B1E0EAEFF0E102C0059091
:1000E0000D92AE31B107D9F721E0AEE1B1E001C028
:1000F0001D92AA38B207E1F710E0C2E6D0E004C0D2
:100100002197FE010E946A08C136D107C9F70E94F3
:1001100075030C9470080C94000090E0FC01E2550B
:10012000FF4F2491FC01E656FF4F3491FC01EA5742
:10013000FF4FE491EE23C9F0222339F0233001F17F
:10014000A8F4213019F1223029F1F0E0EE0FFF1F61
:10015000E458FF4FA591B4918FB7F894EC916111D9
:1001600026C030953E233C938FBF08952730A9F0D9
:100170002830C9F0243049F7809180008F7D03C07A
:10018000809180008F7780938000DFCF84B58F7758
:1001900084BDDBCF84B58F7DFBCF8091B0008F779E
:1001A0008093B000D2CF8091B0008F7DF9CF3E2BED
:1001B000DACFCF93DF9390E0FC01E656FF4F249116
:1001C0008A579F4FFC0184918823D1F090E0880FDB
:1001D000991FFC01EE58FF4FA591B491FC01E45822
:1001E000FF4FC591D49161110EC09FB7F8948C91C7
:1001F000E22FE0958E238C932881E223E8839FBF32
:10020000DF91CF9108958FB7F894EC91E22BEC93A6
:100210008FBFF6CF8E50806480937C0080917A00EF
:10022000806480937A0080917A0086FDFCCF809173
:1002300078009091790008953FB7F8948091670114
:1002400090916801A0916901B0916A0126B5A89BBF
:1002500005C02F3F19F00196A11DB11D3FBFBA2F58
:10026000A92F982F8827BC01CD01620F711D811D18
:10027000911D42E0660F771F881F991F4A95D1F79D
:100280000895AF92BF92CF92DF92EF92FF920F93B9
:100290001F93CF93DF936C017B018B01040F151F1C
:1002A000EB015E01AE18BF08C017D10759F0699184
:1002B000D601ED91FC910190F081E02DC6010995E8
:1002C000892B79F7C501DF91CF911F910F91FF9095
:1002D000EF90DF90CF90BF90AF9008952091600194
:1002E000309161012817390771F490915E01809176
:1002F0005F01981741F0E0915E01F0E0E25EFE4F91
:10030000808190E008958FEF9FEF08950895EF9218
:10031000FF920F931F93CF93DF93DC015C96ED90D8
:10032000FC905D97E114F10479F481E090E013967C
:100330009C938E93129790E080E0DF91CF911F9174
:100340000F91FF90EF9008955196ED91FC91529787
:1003500050968C915097982F90950FB75E962C9150
:100360005E97122F127021FD6095F8942081112361
:1003700019F1282B2083E7012197F1F728E0462F78
:1003800050E0308160FF1AC0382B3083E70121979D
:10039000F1F7BA0175956795215089F7112381F01E
:1003A0008081892380830FBF5C968D919C910197FA
:1003B000F1F781E090E0C1CF2923DCCF3923E5CFED
:1003C0009081892BEFCF2091600130916101281736
:1003D000390761F480915F0120915E0190E0805CBB
:1003E0009F4F821B91098F739927089590E080E0B9
:1003F0000895209160013091610128173907B9F4FF
:1004000090915E0180915F01981789F0E0915E0103
:10041000F0E0E25EFE4F808120915E0130E02F5FD0
:100420003F4F2F73332720935E0190E008958FEFA5
:100430009FEF089590E080E00895FC010190002076
:10044000E9F73197AF01481B590BBC018BE691E0EE
:100450000C9441018F929F92AF92BF920F931F9382
:10046000CF93DF93CDB7DEB7A1970FB6F894DEBF79
:100470000FBECDBF19A2423008F44AE08E010F5DD5
:100480001F4F842E912CB12CA12CA50194010E9408
:100490004808E62FB901CA01EA30F4F4E05DD8015A
:1004A000EE938D01232B242B252B79F790E080E010
:1004B000109719F0CD010E941D02A1960FB6F89475
:1004C000DEBF0FBECDBFDF91CF911F910F91BF90C7
:1004D000AF909F908F900895E95CE1CF1F920F92AB
:1004E0000FB60F9211242F933F938F939F93AF9347
:1004F000BF938091630190916401A0916501B091D7
:1005000066013091620123E0230F2D3758F50196E3
:10051000A11DB11D2093620180936301909364013A
:10052000A0936501B0936601809167019091680185
:10053000A0916901B0916A010196A11DB11D80933E
:10054000670190936801A0936901B0936A01BF911C
:10055000AF919F918F913F912F910F900FBE0F9070
:100560001F90189526E8230F0296A11DB11DD2CF2A
:100570001F920F920FB60F9211242F933F934F9318
:100580005F936F937F938F939F93AF93BF93EF93FB
:10059000FF93E0916001F0916101309749F0A685E9
:1005A000B7858585968D91FF14C09C918923A1F410
:1005B000FF91EF91BF91AF919F918F917F916F913B
:1005C0005F914F913F912F910F900FBE0F901F9011
:1005D00018959C91892361F7A389B4899C91858999
:1005E000809589238C93868997890197F1F7608D8F
:1005F000718DA685B785558538E020E0CB01019740
:10060000F1F7822F90E095958795282F4C914523FF
:1006100009F02068315091F7868D81FD20958091F9
:100620005F0190E001968F73992730915E01381732
:1006300099F0A0915F01B0E0A25EBE4F2C93809331
:100640005F01828D938D0197F1F7A389B4898C9115
:100650009589892B8C93ACCF868D8160868FF1CF65
:10066000CF92DF92EF92FF920F931F93E82FF92F13
:1006700005C0015011092109310961F190819623CA
:100680009417B9F305C0015011092109310911F17D
:10069000908196239413F7CFC12CD12CE12CF12C0F
:1006A0000AC08FEFC81AD80AE80AF80A0C151D0507
:1006B0002E053F0579F080818623841791F36C2DF8
:1006C0007D2D8E2D9F2D1F910F91FF90EF90DF902C
:1006D000CF90089560E070E080E090E01F910F916E
:1006E000FF90EF90DF90CF900895789484B582606A
:1006F00084BD84B5816084BD85B5826085BD85B5C6
:10070000816085BD80916E00816080936E00109243
:1007100081008091810082608093810080918100BE
:10072000816080938100809180008160809380004F
:100730008091B10084608093B1008091B0008160AD
:100740008093B00080917A00846080937A008091D9
:100750007A00826080937A0080917A008160809331
:100760007A0080917A00806880937A001092C100AC
:1007700010928601109285011092840110928301DB
:1007800010928201109281018DE991E0909388018D
:100790008093870190917701963108F047C02DEB47
:1007A00030E030938201209381012BE931E03093D6
:1007B0008401209383012CE231E030938601209361
:1007C00085012091680084E0983048F031E09E3047
:1007D00008F430E081E001C0880F3A95EAF7822BF7
:1007E000809368002DE630E0983050F02BE630E042
:1007F0009E3030F02CE630E0963110F030E020E012
:1008000030937F0120937E01292F30E0983008F04B
:10081000DBC081E001C0880F9A95EAF780938001E0
:1008200080918701909188010197F1F7809185016E
:1008300090918601892B49F1E0916001F09161016D
:1008400021E0EB36F20709F1309739F0A389B4893A
:100850009C918589809589238C93809189018E7FD5
:100860008093890110925F0110925E018BE691E006
:100870009093610180936001E0917E01F0917F018E
:10088000808190918001892B808361E089E00E94C2
:10089000D90060E08AE00E94D90061E082E00E9415
:1008A000D90023E2222E312CC0E0D0E060E082E0CB
:1008B0000E948D008EE00E940A0160E089E00E94A3
:1008C0008D0083E090E00197F1F761E089E00E94FC
:1008D0008D00C1010197F1F760E089E00E948D0071
:1008E000E4EAF0E06491E0E9F0E08491E82FF0E0E0
:1008F000EE0FFF1FE859FF4F8591949100E412E439
:100900002FE030E0462F0E9430038FE00E940A0162
:10091000BC01990F880B990B0E94210720E030E061
:1009200040EA50E40E94D60720E030E040E85AE375
:100930000E94D60720E03CE742E157E40E94D60738
:1009400020E030E64AEE55E40E947E066B017C0111
:100950004B015C01AC019B010E944308882309F410
:1009600040C082E191E00E941D0261E082E00E94AD
:100970008D000E941C014B015C0188EEC82E83E0B3
:10098000D82EE12CF12C0E941C01681979098A09E2
:100990009B09683E734081059105A8F3F1E0CF1AE9
:1009A000D108E108F10828EE820E23E0921EA11C76
:1009B000B11CC114D104E104F10429F7209709F412
:1009C00075CF0E94000072CF9E3040F4285031094C
:1009D00081E001C0880F2A95EAF720CF2E50310917
:1009E000F7CF26013701E89477F82FEF3FEF4FE775
:1009F0005FE7C301B2010E94430881110DC02FEFD0
:100A00003FEF4FE75FE7C301B2010E947906181676
:100A10001CF486E191E0A7CF2FEF3FEF4FE75FE4B3
:100A2000C701B6010E94D10718161CF48AE191E0B3
:100A30009ACF2FEF3FEF4FE75FECC701B6010E945F
:100A4000790687FDF3CF20E030E0A901C701B601A8
:100A50000E94790687FF0BC06DE28BE691E00E9451
:100A6000870146015701B7FAB094B7F8B0942AE06D
:100A700037ED43EA5BE3C501B4010E940D064B016B
:100A80005C010E94F0066B017C010E941F079B0124
:100A9000AC01C501B4010E940C064B015C014AE0A7
:100AA000C701B6010E942A026EE28BE691E00E9425
:100AB000870120E030E040E251E4C501B4010E942A
:100AC000D6074B015C010E94F0066B01F12CE12C72
:100AD0004AE0C701B6010E942A02C701B6010E947E
:100AE0001F079B01AC01C501B4010E940C0620E068
:100AF00030E040E251E40E94D6070E94F00690E008
:100B000080E04AE00E942A0230CF10926E011092DB
:100B10006D0188EE93E0A0E0B0E080936F019093C8
:100B20007001A0937101B093720184E091E0909301
:100B30006C0180936B0110928201109281011092DE
:100B40008401109283011092860110928501109207
:100B5000880110928701609189016E7F6D7F60939B
:100B600089016695617081E068270E948D0061E0CF
:100B700081E00E94D900EBE9F0E0E491E0937B0191
:100B8000E7E8F0E0E491F0E0EE0FFF1FE458FF4FDC
:100B90008591949190937D0180937C0160E080E049
:100BA0000E94D9008091890181FD04C061E080E04C
:100BB0000E948D0010927701EAE9F0E0E491E09361
:100BC0007801E6E8F0E0E491F0E0EE0FFF1FE8596D
:100BD000FF4F8591949190937A01809379010895C4
:100BE00084E091E090936C0180936B0180916001AF
:100BF000909161018B56914071F4E0917E01F091EA
:100C00007F0190818091800180958923808310925B
:100C100061011092600108955058BB27AA270E94D5
:100C200024060C9497070E94890738F00E949007C9
:100C300020F039F49F3F19F426F40C9486070EF443
:100C4000E095E7FB0C948007E92F0E94A80758F372
:100C5000BA17620773078407950720F079F4A6F5A1
:100C60000C94CA070EF4E0950B2EBA2FA02D0B01A1
:100C7000B90190010C01CA01A0011124FF27591BE1
:100C800099F0593F50F4503E68F11A16F040A22FE7
:100C9000232F342F4427585FF3CF46953795279558
:100CA000A795F0405395C9F77EF41F16BA0B620B57
:100CB000730B840BBAF09150A1F0FF0FBB1F661F9E
:100CC000771F881FC2F70EC0BA0F621F731F841FE1
:100CD00048F4879577956795B795F7959E3F08F007
:100CE000B0CF9395880F08F09927EE0F97958795C9
:100CF00008950E945C0708F481E008950E9492061E
:100D00000C9497070E94900758F00E94890740F0C2
:100D100029F45F3F29F00C94800751110C94CB0704
:100D20000C9486070E94A80768F39923B1F3552312
:100D300091F3951B550BBB27AA27621773078407EE
:100D400038F09F5F5F4F220F331F441FAA1FA9F384
:100D500035D00E2E3AF0E0E832D091505040E69572
:100D6000001CCAF72BD0FE2F29D0660F771F881FD3
:100D7000BB1F261737074807AB07B0E809F0BB0BC6
:100D8000802DBF01FF2793585F4F3AF09E3F5105DA
:100D900078F00C9480070C94CB075F3FE4F3983E07
:100DA000D4F3869577956795B795F7959F5FC9F7C3
:100DB000880F911D9695879597F90895E1E0660F44
:100DC000771F881FBB1F621773078407BA0720F0BD
:100DD000621B730B840BBA0BEE1F88F7E095089526
:100DE0000E94B00788F09F5798F0B92F9927B75104
:100DF000B0F0E1F0660F771F881F991F1AF0BA95BF
:100E0000C9F714C0B13091F00E94CA07B1E008954B
:100E10000C94CA07672F782F8827B85F39F0B93F3D
:100E2000CCF3869577956795B395D9F73EF4909571
:100E30008095709561957F4F8F4F9F4F0895E894EF
:100E400009C097FB3EF490958095709561957F4F12
:100E50008F4F9F4F9923A9F0F92F96E9BB279395C0
:100E6000F695879577956795B795F111F8CFFAF4D0
:100E7000BB0F11F460FF1BC06F5F7F4F8F4F9F4F01
:100E800016C0882311F096E911C0772321F09EE85F
:100E9000872F762F05C0662371F096E8862F70E0C5
:100EA00060E02AF09A95660F771F881FDAF7880F9F
:100EB0009695879597F90895990F0008550FAA0BF5
:100EC000E0E8FEEF16161706E807F907C0F012165D
:100ED0001306E407F50798F0621B730B840B950B60
:100EE00039F40A2661F0232B242B252B21F40895B5
:100EF0000A2609F4A140A6958FEF811D811D089552
:100F000097F99F6780E870E060E008959FEF80ECBC
:100F1000089500240A94161617061806090608955F
:100F200000240A9412161306140605060895092EC5
:100F30000394000C11F4882352F0BB0F40F4BF2B34
:100F400011F460FF04C06F5F7F4F8F4F9F4F089574
:100F500057FD9058440F551F59F05F3F71F047956A
:100F6000880F97FB991F61F09F3F79F0879508954F
:100F7000121613061406551FF2CF4695F1DF08C06E
:100F8000161617061806991FF1CF8695710561058B
:100F900008940895E894BB2766277727CB0197F933
:100FA00008950E945C0708F48FEF08950E94E907F6
:100FB0000C9497070E94890738F00E94900720F050
:100FC000952311F00C9480070C94860711240C943F
:100FD000CB070E94A80770F3959FC1F3950F50E0CF
:100FE000551F629FF001729FBB27F00DB11D639FDB
:100FF000AA27F00DB11DAA1F649F6627B00DA11D81
:10100000661F829F2227B00DA11D621F739FB00D26
:10101000A11D621F839FA00D611D221F749F332796
:10102000A00D611D231F849F600D211D822F762F2F
:101030006A2F11249F5750409AF0F1F088234AF00C
:10104000EE0FFF1FBB1F661F771F881F9150504078
:10105000A9F79E3F510580F00C9480070C94CB07B4
:101060005F3FE4F3983ED4F3869577956795B795FF
:10107000F795E7959F5FC1F7FE2B880F911D969519
:10108000879597F908950E945C07880B990B08953E
:10109000A1E21A2EAA1BBB1BFD010DC0AA1FBB1F7C
:1010A000EE1FFF1FA217B307E407F50720F0A21BEE
:1010B000B30BE40BF50B661F771F881F991F1A945B
:1010C00069F760957095809590959B01AC01BD0185
:1010D000CF010895EE0FFF1F0590F491E02D0994C4
:1010E00010E0C2E6D0E004C0FE010E946A0821962A
:0A10F000C336D107C9F7F894FFCF0B
:1010FA0000000000870141011A028601E301F9019B
:0E110A006E016E616E00696E66006F766600A3
:00000001FF
